:020000040000FA
:100000000C946C000C9494000C9494000C94940048
:100010000C9494000C9494000C9494000C94940010
:100020000C9494000C9494000C9494000C94A808E4
:100030000C9494000C9494000C9494000C949400F0
:100040000C943F070C9494000C940D070C94E70655
:100050000C9494000C9494000C9494000C949400D0
:100060000C9489070C94940005A84CCDB2D44EB9D9
:100070003836A9020C50B9918688083CA6AAAA2A4B
:10008000BE000000803F00000008000201000003E5
:100090000407000000000000000000000000250030
:1000A00028002B0000000000240027002A00040480
:1000B0000404040404040202020202020303030310
:1000C00003030102040810204080010204081020EC
:1000D000010204081020640911241FBECFEFD8E0EC
:1000E000DEBFCDBF11E0A0E0B1E0ECE2FCE202C077
:1000F00005900D92AA3CB107D9F723E0AAECB1E034
:1001000001C01D92A33CB207E1F710E0CCE6D0E0BD
:1001100004C02197FE010E946D13CB36D107C9F7A9
:100120000E94240A0C9414160C940000E2E9F2E0F8
:10013000A089B18982E08C93A485B5851C92A6859F
:10014000B78583E38C93108EA489B58986E08C9360
:10015000A289B3898C9180618C93A289B3898C9197
:1001600088608C93A289B3898C9180688C93028873
:10017000F389E02D80818F7D8083089590E0FC01DC
:10018000EE53FF4F249182559F4FFC0184918823A9
:1001900099F090E0880F991FFC01EC55FF4FA59155
:1001A000B491FC01E656FF4F859194918FB7F89476
:1001B000EC91E22BEC938FBF0895AF92BF92CF9258
:1001C000DF92EF92FF920F931F93CF93DF936C0117
:1001D0007B018B01040F151FEB015E01AE18BF08F8
:1001E000C017D10759F06991D601ED91FC910190AA
:1001F000F081E02DC6010995892B79F7C501DF91C2
:10020000CF911F910F91FF90EF90DF90CF90BF9013
:10021000AF90089580911C0290911D02891B990B4B
:100220000895089508950895FC01538D448D252F58
:1002300030E0842F90E0821B930B541710F0CF9680
:10024000089501970895FC01918D828D981761F0B2
:10025000A28DAE0FBF2FB11D5D968C91928D9F5FC9
:100260009F73928F90E008958FEF9FEF0895FC01A8
:10027000918D828D981731F0828DE80FF11D858D5B
:1002800090E008958FEF9FEF0895FC01918D228DEE
:10029000892F90E0805C9F4F821B91098F73992773
:1002A000089582E992E00E94450121E0892B09F43A
:1002B00020E0822F089580E090E0892B29F00E94B1
:1002C000510181110C9400000895FC01A48DA80F28
:1002D000B92FB11DA35ABF4F2C91848D90E0019688
:1002E0008F739927848FA689B7892C93A089B189A8
:1002F0008C91837080648C93938D848D981306C049
:100300000288F389E02D80818F7D80830895EF92AC
:10031000FF920F931F93CF93DF93EC0181E0888FBF
:100320009B8D8C8D98131AC0E889F989808185FF8F
:1003300015C09FB7F894EE89FF896083E889F98931
:1003400080818370806480839FBF81E090E0DF9133
:10035000CF911F910F91FF90EF900895F62E0B8D86
:1003600010E00F5F1F4F0F731127E02E8C8D8E1141
:100370000CC00FB607FCFACFE889F989808185FFA8
:10038000F5CFCE010E946501F1CFEB8DEC0FFD2F73
:10039000F11DE35AFF4FF0829FB7F8940B8FEA8963
:1003A000FB8980818062CFCFCF93DF93EC01888D72
:1003B0008823B9F0AA89BB89E889F9898C9185FDE0
:1003C00003C0808186FD0DC00FB607FCF7CF8C916E
:1003D00085FFF2CF808185FFEDCFCE010E946501C0
:1003E000E9CFDF91CF91089590E0FC01EA57FF4FEC
:1003F0002491FC01EE53FF4F3491FC01E255FF4F75
:10040000E491EE23C9F0222339F0233001F1A8F45E
:10041000213019F1223029F1F0E0EE0FFF1FE656EE
:10042000FF4FA591B4918FB7F894EC91611126C05C
:1004300030953E233C938FBF08952730A9F0283094
:10044000C9F0243049F7809180008F7D03C08091EE
:1004500080008F7780938000DFCF84B58F7784BD55
:10046000DBCF84B58F7DFBCF8091B0008F778093F9
:10047000B000D2CF8091B0008F7DF9CF3E2BDACF84
:100480003FB7F8948091140290911502A091160242
:10049000B091170226B5A89B05C02F3F19F0019611
:1004A000A11DB11D3FBFBA2FA92F982F8827BC01CE
:1004B000CD01620F711D811D911D42E0660F771FF6
:1004C000881F991F4A95D1F708958F929F92AF92F6
:1004D000BF92CF92DF92EF92FF924B015C010E949C
:1004E00040026B017C010E9440026C197D098E095B
:1004F0009F09683E734081059105A8F321E0821AA7
:100500009108A108B10888EEC80E83E0D81EE11C4E
:10051000F11C81149104A104B10429F7FF90EF901C
:10052000DF90CF90BF90AF909F908F9008952FB79E
:10053000F8946091100270911102809112029091D2
:1005400013022FBF08952091EC01260F3327331F8C
:1005500021323105ECF420916802FC0190E080E04A
:10056000243069F082E00895A091EC012191AC0162
:1005700044535E4FA40FB52FB11D2C9301968617DF
:1005800098F38091EC01680F6093EC0180E008958E
:1005900081E008951092680281E0809367021092D2
:1005A000420261E082E10E94F40161E083E10E9485
:1005B000F401E9EBF0E080818E7F808380818D7F84
:1005C000808388E48093B80085E48093BC0008951C
:1005D000CF93DF9391E09093CB018823B9F0C09142
:1005E000B800D091BA008091BC008A7B8093BC0097
:1005F00060E082E10E94F40160E083E10E94F40186
:100600000E94CA02D093BA00C093B800DF91CF9184
:1006100008958F929F92AF92BF92CF92DF92EF9206
:10062000FF920F931F93CF93DF93D0919102D1321A
:1006300008F0D7C0182FC09190020E9440026B01B1
:100640007C018091680281116BC082E08093680216
:10065000109367028FEF8093660210926502D09329
:100660006402A0E7B2E0E4E4F2E080E0D81391C0D5
:100670001092430280914302CC0FC82BC0934302D7
:1006800080914202813009F088C0109242020E949B
:1006900040026B017C01809143028093BB008091FA
:1006A0006A0290916B02A0916C02B0916D02892B4D
:1006B0008A2B8B2BA1F00E94400200916A021091BC
:1006C0006B0220916C0230916D026C197D098E09CC
:1006D0009F09061717072807390708F442C08091B9
:1006E000BC0083FDD8CF85EC8093BC000E94400203
:1006F0006B017C0180916802823009F450C08091C6
:1007000066028F3F09F46FC080916602803209F45F
:100710006CC080916602803309F469C084E026C011
:1007200080916A0290916B02A0916C02B0916D026F
:10073000892B8A2B8B2B09F484CF0E944002809056
:100740006A0290906B02A0906C02B0906D026C19DE
:100750007D098E099F0986169706A806B90608F036
:1007600070CF809169020E94E80285E010926F02CA
:100770001092910210926E02DF91CF911F910F9112
:10078000FF90EF90DF90CF90BF90AF909F908F90B1
:1007900008959D9191938F5F69CF85EEA5CF80914C
:1007A0006A0290916B02A0916C02B0916D02892B4C
:1007B0008A2B8B2B09F49ECF0E94400200916A0283
:1007C00010916B0220916C0230916D026C197D09C1
:1007D0008E099F09061717072807390708F08ACFDF
:1007E000C0CF81E0C3CF80E0C1CF82E0BFCF83E044
:1007F000BDCFCF92DF92EF92FF920F931F93CF93D3
:10080000DF93D82FC62F613208F098C00E944002B3
:100810006B017C018091680281116BC081E0809343
:100820006802809367029FEF9093660210926502C0
:100830009C0F909364028093430280914302DD0FEA
:10084000D82BD093430280914202813009F078C0C6
:10085000109242020E9440026B017C01809143028F
:100860008093BB0080916A0290916B02A0916C0210
:10087000B0916D02892B8A2B8B2BA1F00E94400234
:1008800000916A0210916B0220916C0230916D020E
:100890006C197D098E099F09061717072807390764
:1008A00008F448C08091BC0083FDD8CF85EC8093CC
:1008B000BC000E9440026B017C0180916802813083
:1008C00009F440C0809165028C1710F4C091650254
:1008D000E4E4F2E0A2E2B2E080E08C1355C08C2F99
:1008E000DF91CF911F910F91FF90EF90DF90CF900C
:1008F000089580916A0290916B02A0916C02B09170
:100900006D02892B8A2B8B2B09F484CF0E94400225
:1009100000916A0210916B0220916C0230916D027D
:100920006C197D098E099F090617170728073907D3
:1009300008F070CF809169020E94E802C0E0CFCF3A
:1009400085EEB5CF80916A0290916B02A0916C0206
:10095000B0916D02892B8A2B8B2B09F4AECF0E94AC
:10096000400200916A0210916B0220916C0230915A
:100970006D026C197D098E099F0906171707280754
:10098000390708F09ACFD6CF91919D938F5FA5CF6D
:10099000E0911D0280911C02E81730F4F0E0EE5D5A
:1009A000FD4F808190E008958FEF9FEF0895909123
:1009B0001D0280911C022FEF3FEF981748F4E92F9A
:1009C000F0E0EE5DFD4F208130E09F5F90931D02CF
:1009D000C9010895CF92DF92EF92FF920F931F9378
:1009E000CF93DF937C01CB018A0120916E022223F9
:1009F00089F0EB016B01C40ED51ECC15DD0569F045
:100A00006991D701ED91FC910190F081E02DC70132
:100A10000995F3CF642F0E94A302C801DF91CF9103
:100A20001F910F91FF90EF90DF90CF900895CF939B
:100A3000DF931F92CDB7DEB7698320916E02222328
:100A4000F9F020919102203258F021E030E0FC01D1
:100A50003383228390E080E00F90DF91CF9108955F
:100A600080916F02E82FF0E0E059FD4F998190836B
:100A70008F5F80936F028093910281E090E0ECCFD2
:100A800061E0CE0101960E94A302F7CF682F8FE2AA
:100A900093E00C94170590E080E00895CF92DF92E8
:100AA000EF92FF92CF93DF93EC01603282E0780700
:100AB000CCF5653B710514F064EB70E0898128E8A2
:100AC00030E0281B310987FD3395220F331F220F99
:100AD000331F6901330FEE08FF088A8128E532E0F1
:100AE000281B310987FD3395220F331F220F331F37
:100AF000032E000C440B550B2C193D094E095F09C0
:100B0000DB0177FF02C0B0E0A0E00E94641124EB9B
:100B100030E040E050E00E943A11C20ED31EE41EC5
:100B2000F51EB601E881EC3070F5298188E890E087
:100B3000821B910927FD9395880F991F880F991F94
:100B4000681779077CF02A8188E592E0821B910979
:100B500027FD9395880F991F880F991F68177907AC
:100B60000CF4CB010297880F991F4FB7F8942E2FE2
:100B700030E0F901EE0FFF1FE20FF31FEF57FC4FBC
:100B8000928381834FBFDF91CF91FF90EF90DF90F1
:100B9000CF900895892B79F41092800082E08093A1
:100BA00081001092850010928400B19A80916F00AC
:100BB000826080936F000895FC0101900020E9F7A6
:100BC0003197AF01481B590BBC0182E992E00C94AC
:100BD000DD008F929F92AF92BF920F931F93CF939E
:100BE000DF93CDB7DEB7A1970FB6F894DEBF0FBE87
:100BF000CDBF19A2423008F44AE08E010F5D1F4FAD
:100C0000842E912CB12CA12CA50194010E941811C5
:100C1000E62FB901CA01EA30F4F4E05DD801EE93A1
:100C20008D01232B242B252B79F790E080E0109762
:100C300019F0CD010E94DC05A1960FB6F894DEBF35
:100C40000FBECDBFDF91CF911F910F91BF90AF909D
:100C50009F908F900895E95CE1CFCF93DF930E943E
:100C6000DC05EC0184E291E00E94DC058C0F9D1F05
:100C7000DF91CF910895CF93C62F91E090936E02AC
:100C800092E69093900210926F0210929102082EB9
:100C9000000C990B0E9446058C2FCC0F990B0E94DB
:100CA000460581E00E940903882321F087E291E054
:100CB0000E942D0661E070E080E090E0CF910C94FE
:100CC0006502EF92FF920F931F93CF93DF9300D0B3
:100CD00000D0CDB7DEB782E992E00E94230182E91D
:100CE00092E00E9423018E010F5F1F4F78018A332B
:100CF00041F0F80181938F0182E992E00E94230183
:100D0000F6CFC7010E94CE0F182F82E992E00E9411
:100D100023018053990B8230910520F4682F812F95
:100D20000E94F40182E992E00E9423018A3011F0CE
:100D30008D30C1F782E992E00E9437018A3021F4B8
:100D400082E992E00E9423010F900F900F900F9084
:100D5000DF91CF911F910F91FF90EF90089585ED56
:100D60008093BC0080916A0290916B02A0916C020A
:100D7000B0916D020796A11DB11D23E0B695A79510
:100D8000979587952A95D1F72091BC0024FD03C043
:100D900010926802089540916A0250916B0260912E
:100DA0006C0270916D02452B462B472B69F300971F
:100DB000A105B10541F025E32A95F1F7000001975F
:100DC000A109B109E1CF809169020C94E8021F9258
:100DD0000F920FB60F9211242F933F934F935F936F
:100DE0006F937F938F939F93AF93BF93EF93FF93F3
:100DF00082E992E00E946501FF91EF91BF91AF916E
:100E00009F918F917F916F915F914F913F912F9122
:100E10000F900FBE0F901F9018951F920F920FB654
:100E20000F9211242F938F939F93EF93FF93E09151
:100E3000A202F091A3028081E091A802F091A902A0
:100E400082FD1BC090818091AB028F5F8F732091D8
:100E5000AC02821741F0E091AB02F0E0EE56FD4F9C
:100E6000958F8093AB02FF91EF919F918F912F917E
:100E70000F900FBE0F901F9018958081F4CF1F9296
:100E80000F920FB60F9211242F933F938F939F933E
:100E9000AF93BF938091100290911102A091120222
:100EA000B091130230910F0223E0230F2D3758F534
:100EB0000196A11DB11D20930F0280931002909303
:100EC0001102A0931202B093130280911402909128
:100ED0001502A0911602B09117020196A11DB11D35
:100EE0008093140290931502A0931602B0931702F8
:100EF000BF91AF919F918F913F912F910F900FBE16
:100F00000F901F90189526E8230F0296A11DB11D82
:100F1000D2CF1F920F920FB60F9211242F933F93AF
:100F20004F935F936F937F938F939F93AF93BF93F1
:100F3000EF93FF938091B900887F803609F44AC00F
:100F4000F0F5883209F4A7C018F5803109F49BC088
:100F5000B8F4882309F4F9C0883009F494C0FF91EB
:100F6000EF91BF91AF919F918F917F916F915F9121
:100F70004F913F912F910F900FBE0F901F9018959A
:100F8000883109F488C0803251F78093660214C01A
:100F9000803409F49DC040F48033B9F38833F9F606
:100FA0008093660285ECB0C0803509F485C0883531
:100FB00009F496C0883499F60E94AF06D0CF8839DC
:100FC00009F48CC038F5883729F050F4883611F0D0
:100FD000803729F683E08093680210920E0257C092
:100FE000883809F47BC0803919F0803809F0B7CF10
:100FF00080910E02803208F071C0E0910E0281E013
:101000008E0F80930E028091BB00F0E0E251FE4F04
:1010100080833DC0803B39F0E0F4803A09F479C028
:10102000883A09F09CCF84E0809368021092ED0129
:101030001092EC01E0911A02F0911B020995809147
:10104000EC0181110FC081E08093EC011092CC0182
:1010500009C0803C09F4A6CF883C09F4A3CF883BA3
:1010600009F07DCFE091ED0181E08E0F8093ED01DD
:10107000F0E0E453FE4F80818093BB009091ED013E
:101080008091EC0129C0809143028093BB0085ECE4
:101090008093BC0064CF90916502809164029817A0
:1010A00058F5E091650281E08E0F80936502F0E0D3
:1010B000EC5BFD4F8081E9CFE091650281E08E0F0E
:1010C000809365028091BB00F0E0EC5BFD4F808374
:1010D00090916502809164029817C8F285E8D8CF94
:1010E000E091650281E08E0F809365028091BB00E4
:1010F000F0E0EC5BFD4F80838091670281115CCF53
:1011000081E08093420284EA8093BC0010926802DE
:1011100026CF85EC8093BC001092680280910E026D
:10112000803230F4E0910E02F0E0E251FE4F108286
:1011300060910E0270E0E0911802F09119028EEEBB
:1011400091E0099510920E020ACF1092660234CFF8
:101150001F920F920FB60F9211242F933F934F932C
:101160005F936F937F938F939F93AF93BF93CF932F
:10117000DF93EF93FF938091CA01C091A503D0E064
:1011800087FF24C010928500109284008091CA01CC
:101190008F5F8093CA018091CA01082E000C990BC1
:1011A0008C179D0724F48091CA018C30C4F1809182
:1011B000840090918500049680349C4908F47AC09C
:1011C0008091840090918500049676C08091CA0138
:1011D000082E000C990B8C179D07C4F6E091CA01EC
:1011E0008E2FEE0F990BFC01EE0FFF1FE80FF91F7A
:1011F000EF57FC4F808186FFC9CFE091CA018E2F47
:10120000EE0F990BFC01EE0FFF1FE80FF91FEF57D0
:10121000FC4F808160E08F730E94F401B7CF209172
:10122000840030918500E091CA018E2FEE0F990B5A
:10123000FC01EE0FFF1FE80FF91FEF57FC4F8181F4
:101240009281820F931F9093890080938800E09190
:10125000CA018E2FEE0F990BFC01EE0FFF1FE80F56
:10126000F91FEF57FC4F808186FF11C0E091CA0142
:101270008E2FEE0F990BFC01EE0FFF1FE80FF91FE9
:10128000EF57FC4F808161E08F730E94F401FF9162
:10129000EF91DF91CF91BF91AF919F918F917F910E
:1012A0006F915F914F913F912F910F900FBE0F90D3
:1012B0001F90189580E49CE99093890080938800A2
:1012C0008FEF8093CA01E3CF10929502109294029F
:1012D00088EE93E0A0E0B0E08093960290939702AE
:1012E000A0939802B093990224E031E030939302E6
:1012F0002093920225EC30E030939F0220939E02CF
:1013000024EC30E03093A1022093A00220EC30E0E6
:101310003093A3022093A20221EC30E03093A50287
:101320002093A40222EC30E03093A7022093A6027F
:1013300026EC30E03093A9022093A8021092AB0271
:101340001092AC021092AD021092AE0210923203D3
:10135000109231038093330390933403A0933503A9
:10136000B093360386E191E09093300380932F038E
:1013700010924103109242031092430310924403CF
:1013800010924503109246031092470310924803AF
:101390001092490310924A0310924B0310924C038F
:1013A00010924D0310924E0310924F03109250036F
:1013B0008091A5038C3008F03FC091E0980F909386
:1013C000A5038093A70390E0FC01EE0FFF1FE80F39
:1013D000F91FEF57FC4F88EB9BE09283818380914C
:1013E000A5038C3068F591E0980F9093A503809346
:1013F000AA0390E0FC01EE0FFF1FE80FF91FEF5763
:10140000FC4F88EB9BE0928381838AE590E0909388
:10141000AE038093AD0383E290E09093B00380939A
:10142000AF031092B2031092B1038FEF9FEF90932E
:10143000B4038093B30308958FEF8093A703CFCFB6
:101440008FEF8093AA03E1CFCF93DF93CDB7DEB7C1
:10145000CE5CD1090FB6F894DEBF0FBECDBF789435
:1014600084B5826084BD84B5816084BD85B58260A9
:1014700085BD85B5816085BD80916E00816080935A
:101480006E001092810080918100826080938100C3
:1014900080918100816080938100809180008160D3
:1014A000809380008091B10084608093B10080912E
:1014B000B00081608093B00080917A008460809356
:1014C0007A0080917A00826080937A0080917A001D
:1014D000816080937A0080917A00806880937A009E
:1014E0001092C10010927D0310927E0310927F0330
:1014F0001092800310923D0310923E0310923F031E
:10150000109240030E9497022B013C015C014B01A9
:1015100028EB820E2BE0921EA11CB11C0E949702A8
:10152000641575058605970528F086169706A806A2
:10153000B906A0F768EE73E080E090E00E946502D3
:101540000E9496008EE291E00E94DC050E949702C4
:101550002B013C015C014B013AE0830E911CA11C64
:10156000B11C0E949702641575058605970528F041
:1015700086169706A806B906A0F781E08093510366
:101580008FE391E00E94DC050E94960010921D02FC
:1015900010921C0210926F02109291020E94CA02D5
:1015A00082E191E090931B0280931A0283E191E023
:1015B00090931902809318021CE01093B80060E821
:1015C00082E00E943B0668E084E00E943B0660E007
:1015D0008CE10E943B068091A7038C3008F041C04B
:1015E00086E00E94BE008091A703282F30E0F90119
:1015F000EE0FFF1FE20FF31FEF57FC4F9081907C1F
:10160000966090831092A8031092A903612F0E9404
:10161000611390E0819FB001112430E020E0AB0124
:10162000420F531FFA01EE0FFF1FE40FF51FEF5794
:10163000FC4F408146FD07C02F5F3F4F2C303105E6
:1016400071F70E94CA05E091A7038E2F90E0FC017C
:10165000EE0FFF1FE80FF91FEF57FC4F80818064EA
:1016600080838091AA038C3008F042C089E00E94F8
:10167000BE008091AA03282F30E0F901EE0FFF1F72
:10168000E20FF31FEF57FC4F9081907C996090839D
:101690001092AB031092AC032CE0622F0E946113F6
:1016A00090E0829FB001112430E020E0AB01420FB6
:1016B000531FFA01EE0FFF1FE40FF51FEF57FC4F0A
:1016C000408146FD07C02F5F3F4F2C30310571F739
:1016D0000E94CA05E091AA038E2F90E0FC01EE0F54
:1016E000FF1FE80FF91FEF57FC4F80818064808354
:1016F00065E0262E312C412C512C612C70E4772E84
:101700000E949702672B682B692B09F4CEC00E94B8
:10171000970200911E0210911F0220912002309129
:101720002102601771078207930708F4FBC000913C
:101730001E0210911F0220912002309121026B01A4
:101740007C01C01AD10AE20AF30A97018601083E19
:1017500013402105310508F4B0C060931E02709358
:101760001F02809320029093210284EF91E0A0E079
:10177000B0E08093490390934A03A0934B03B09346
:101780004C0310924D0310924E0310924F0310928F
:1017900050038091410390914203A0914303B09183
:1017A00044038093450390934603A0934703B0936B
:1017B00048030E9497026093410370934203809311
:1017C00043039093440382E992E00E9437018436F8
:1017D00011F40E9461060E9497024B015C0186E4AD
:1017E00091E00E94DC054AE061E070E080E090E07A
:1017F0000E94E9058DE491E00E94DC054AE0C50104
:10180000B4010E94E9058FE491E00E94DC0580911B
:10181000410390914203A0914303B09144037501A9
:101820006401C81AD90AEA0AFB0AC701B6014AE0EC
:101830000E94E9058FE491E00E94DC05609141037C
:1018400070914203809143039091440300914503BA
:10185000109146032091470330914803601B710BA0
:10186000820B930B4AE00E94E90581E591E00E941A
:10187000DC050E9497024AE00E94E90583E591E0B9
:101880000E942D0682E992E00E943701843611F40D
:101890000E9461060E949702609341037093420385
:1018A000809343039093440308C00E9497026230E0
:1018B00071058105910508F02ACF64E080E00E945F
:1018C0003B0600E117E2DD24D394D0926E0252E68B
:1018D000E52EE092900210926F021092910281E048
:1018E00090E00E94460581E00E940903882321F0D0
:1018F00087E291E00E942D0661E082E60E94F903F2
:1019000010921D0280931C028FE293E00E94D70484
:10191000817099270150110971F48AE591E00E94C4
:101920002D063FC060931E0270931F028093200219
:1019300090932102FCCE892B31F6FF24F394F09290
:101940006E0222E62093900210926F021092910292
:101950008FE89FEF0E94460581E00E9409038823DB
:1019600021F087E291E00E942D0662E082E60E946B
:10197000F90310921D0280931C02823090F08FE2D6
:1019800093E00E94D704C253DF4F8883CE5CD040DF
:101990008FE293E00E94D704C753DF4F8883C95C6E
:1019A000D040C253DF4FC880CE5CD0400C2D10E039
:1019B000102F0027C753DF4FD880C95CD0400D0DD2
:1019C000111DE090B103F090B20322E0E216F104A1
:1019D00009F432C108F065C0E114F10409F411C141
:1019E000EA94EF2809F468C28091B3039091B4039C
:1019F00097FD03C008171907D4F506301105BCF18F
:101A00008091B0038F938091AF038F938091AE0349
:101A10008F938091AD038F931F930F9320EA31E052
:101A20003F932F9381E090E08C0F9D1F9F938F93A6
:101A30000E947313CE0101960E942D061093B403E9
:101A40000093B3038091AD039091AE039093B603DE
:101A50008093B5038091AF039091B0039093B80346
:101A60008093B7030FB6F894DEBF0FBECDBF809151
:101A7000B9039091BA03019797FD8BC29093BA0373
:101A80008093B90380E0C82E80E0D82ECD2809F4D9
:101A900037CE0E945101882309F432CE0E94000003
:101AA0002FCE53E0E516F10409F44FC185E0E816A6
:101AB000F10409F099CF8091B9039091BA03892B71
:101AC00009F092CF8091B3039091B403D801A81B81
:101AD000B90B5E970CF03AC28090BB039090BC03A8
:101AE000A090BD03B090BE03E090B503F090B603A4
:101AF00020E030E040E052E4C501B4010E94F40F60
:101B000087FF0FC220E030E040E05FE3C501B40191
:101B10000E94B3114B015C018092BB039092BC0305
:101B2000A092BD03B092BE03AC019B016BED7FE0C0
:101B300089E490E40E9424122091BF033091C003F5
:101B40004091C1035091C2030E94B3116093BF033F
:101B50007093C0038093C1039093C2030E941F122D
:101B6000C653DF4F688379838A839B83CA5CD040E6
:101B7000B701FF0C880B990B0E94FB0F6B017C01D6
:101B8000C653DF4F288139814A815B81CA5CD040CE
:101B9000C501B4010E945A109B01AC01C701B601F6
:101BA0000E94B3110E9496127093AE036093AD032E
:101BB00087EA93E00E944E056091BF037091C003D5
:101BC0008091C1039091C2030E9410132091BB0326
:101BD0003091BC034091BD035091BE030E945A1046
:101BE0004B015C016091B7037091B803072E000CA4
:101BF000880B990B0E94FB0F9B01AC01C501B4013E
:101C00001CC11092BA031092B9034092BB035092C8
:101C1000BC036092BD037092BE031092BF0310928A
:101C2000C0031092C1031092C203A2E0B0E0B093CF
:101C3000B203A093B103D8CE8091B9039091BA03B7
:101C4000892B09F0D1CE8090BB039090BC03A0906B
:101C5000BD03B090BE0320E030E040E052E4C50197
:101C6000B4010E94F40F87FF04C120E030E040E09F
:101C70005FE3C501B4010E94B3114B015C01809286
:101C8000BB039092BC03A092BD03B092BE03AC0113
:101C90009B016BED7FE089E490E40E942412209187
:101CA000BF033091C0034091C1035091C2030E9411
:101CB000B3116093BF037093C0038093C1039093EB
:101CC000C2030E941F129B01AC01C501B4010E9416
:101CD0005A1020E030E044EB52E40E94B3110E941D
:101CE00096127093AE036093AD0387EA93E00E946F
:101CF0004E056091BF037091C0038091C103909124
:101D0000C2030E9410132091BB033091BC03409189
:101D1000BD035091BE030E945A1020E030E046EA15
:101D200052E40E94B3110E9496127093B003609324
:101D3000AF038AEA93E00E944E053AE0C32ED12C0D
:101D4000D092BA03C092B9034FCE8091B90390915B
:101D5000BA03892B09F048CE8090BB039090BC0356
:101D6000A090BD03B090BE0320E030E040E850E416
:101D7000C501B4010E940B1318160CF072C020E0CC
:101D800030E040E05FE3C501B4010E94B2114B01B5
:101D90005C018092BB039092BC03A092BD03B09201
:101DA000BE03AC019B016BED7FE089E490E40E94EF
:101DB00024129B01AC016091BF037091C00380911C
:101DC000C1039091C2030E94B2116093BF0370934C
:101DD000C0038093C1039093C2030E941F129B0112
:101DE000AC01C501B4010E945A1020E030E044EB80
:101DF00052E40E94B3110E9496127093AE03609356
:101E0000AD0387EA93E00E944E056091BF03709195
:101E1000C0038091C1039091C2030E9410132091CE
:101E2000BB033091BC034091BD035091BE030E949F
:101E30005A1020E030E046EA52E40E94B3110E94BA
:101E400096127093B0036093AF038AEA93E00E9406
:101E50004E059AE0E92EF12CF092BA03E092B90314
:101E6000C3CD4092BB035092BC036092BD037092FD
:101E7000BE0381E090E09093B2038093B103609140
:101E8000B5037091B6037093AE036093AD0387EA18
:101E900093E00E944E056091B7037091B803709370
:101EA000B0036093AF038AEA93E00E944E0530923C
:101EB000BA032092B90398CD8091B9039091BA03E7
:101EC000892B09F091CD8091B3039091B4039801CF
:101ED000281B390B2E3131056CF488E691E00E9405
:101EE0002D063092B2032092B1031092BA031092E1
:101EF000B9037ACD84E791E00E942D0642E050E0DC
:101F00005093B2034093B1031092BA031092B903F5
:101F10001092BF031092C0031092C1031092C2032B
:101F200063CD26E0C22ED12CD092B203C092B10371
:101F3000F092AE03E092AD03B70187EA93E00E940E
:101F40004E056091B7037091B8037BCF85E891E0AF
:101F50000E942D0681E090E09093B2038093B1033C
:101F60006091B5037091B6037093AE036093AD03B7
:101F700087EA93E00E944E056091B7037091B80321
:101F80007093B0036093AF038AEA93E00E944E051A
:101F900063CF1092BA031092B90374CDFC01882765
:101FA0009927E89421912032E9F3293010F02E305E
:101FB000C8F32B3241F02D3239F4689404C00E94EA
:101FC000EC0F820F911D219120532A30C0F31EF493
:101FD000909581959F4F08957AE0979F902D879FC8
:101FE000802D910D112408950E94361008F481E08F
:101FF0000895E89409C097FB3EF4909580957095FC
:1020000061957F4F8F4F9F4F9923A9F0F92F96E944
:10201000BB279395F695879577956795B795F111B9
:10202000F8CFFAF4BB0F11F460FF1BC06F5F7F4F56
:102030008F4F9F4F16C0882311F096E911C0772368
:1020400021F09EE8872F762F05C0662371F096E871
:10205000862F70E060E02AF09A95660F771F881F40
:10206000DAF7880F9695879597F90895990F0008E4
:10207000550FAA0BE0E8FEEF16161706E807F9075A
:10208000C0F012161306E407F50798F0621B730BF5
:10209000840B950B39F40A2661F0232B242B252B76
:1020A00021F408950A2609F4A140A6958FEF811D19
:1020B000811D08950E946D100C94DE100E94D010B6
:1020C00038F00E94D71020F0952311F00C94C7101F
:1020D0000C94CD1011240C9412110E94EF1070F387
:1020E000959FC1F3950F50E0551F629FF001729FBD
:1020F000BB27F00DB11D639FAA27F00DB11DAA1FCC
:10210000649F6627B00DA11D661F829F2227B00D18
:10211000A11D621F739FB00DA11D621F839FA00DA3
:10212000611D221F749F3327A00D611D231F849FF3
:10213000600D211D822F762F6A2F11249F5750404A
:102140009AF0F1F088234AF0EE0FFF1FBB1F661FC5
:10215000771F881F91505040A9F79E3F510580F08E
:102160000C94C7100C9412115F3FE4F3983ED4F323
:10217000869577956795B795F795E7959F5FC1F732
:10218000FE2B880F911D9695879597F9089597F9DD
:102190009F6780E870E060E008959FEF80EC08950D
:1021A00000240A9416161706180609060895002436
:1021B0000A9412161306140605060895092E0394B0
:1021C000000C11F4882352F0BB0F40F4BF2B11F424
:1021D00060FF04C06F5F7F4F8F4F9F4F089557FD83
:1021E0009058440F551F59F05F3F71F04795880F85
:1021F00097FB991F61F09F3F79F08795089512161C
:1022000013061406551FF2CF4695F1DF08C01616C7
:1022100017061806991FF1CF869571056105089478
:102220000895E894BB2766277727CB0197F908958F
:10223000A1E21A2EAA1BBB1BFD010DC0AA1FBB1FCA
:10224000EE1FFF1FA217B307E407F50720F0A21B3C
:10225000B30BE40BF50B661F771F881F991F1A94A9
:1022600069F760957095809590959B01AC01BD01D3
:10227000CF010895052E97FB1EF400940E94511182
:1022800057FD07D00E94181107FC03D04EF40C94A0
:10229000511150954095309521953F4F4F4F5F4FCD
:1022A000089590958095709561957F4F8F4F9F4FC2
:1022B00008950E94A311A59F900DB49F900DA49F17
:1022C000800D911D11240895B7FF0C9459110E949F
:1022D0005911821B930B08952F923F924F925F9258
:1022E0006F927F928F929F92AF92BF92CF92DF9226
:1022F000EF92FF920F931F93CF93DF93CDB7DEB78B
:10230000CA1BDB0B0FB6F894DEBF0FBECDBF09941E
:102310002A88398848885F846E847D848C849B8475
:10232000AA84B984C884DF80EE80FD800C811B8183
:10233000AA81B981CE0FD11D0FB6F894DEBF0FBEB2
:10234000CDBFED010895A29FB001B39FC001A39F2F
:10235000700D811D1124911DB29F700D811D1124DE
:10236000911D08955058BB27AA270E94CA110C94AA
:10237000DE100E94D01038F00E94D71020F039F4FF
:102380009F3F19F426F40C94CD100EF4E095E7FB72
:102390000C94C710E92F0E94EF1058F3BA17620788
:1023A00073078407950720F079F4A6F50C941111B2
:1023B0000EF4E0950B2EBA2FA02D0B01B901900160
:1023C0000C01CA01A0011124FF27591B99F0593FA4
:1023D00050F4503E68F11A16F040A22F232F342FEC
:1023E0004427585FF3CF469537952795A795F0403A
:1023F0005395C9F77EF41F16BA0B620B730B840B4F
:10240000BAF09150A1F0FF0FBB1F661F771F881F06
:10241000C2F70EC0BA0F621F731F841F48F487955E
:1024200077956795B795F7959E3F08F0B0CF939550
:10243000880F08F09927EE0F9795879508950E94C9
:10244000CE12E3950C94F7120E9438120C94DE1011
:102450000E94D71058F00E94D01040F029F45F3F3E
:1024600029F00C94C71051110C9412110C94CD103A
:102470000E94EF1068F39923B1F3552391F3951B54
:10248000550BBB27AA2762177307840738F09F5F95
:102490005F4F220F331F441FAA1FA9F335D00E2E02
:1024A0003AF0E0E832D091505040E695001CCAF76F
:1024B0002BD0FE2F29D0660F771F881FBB1F261732
:1024C00037074807AB07B0E809F0BB0B802DBF0109
:1024D000FF2793585F4F3AF09E3F510578F00C94D8
:1024E000C7100C9412115F3FE4F3983ED4F3869525
:1024F00077956795B795F7959F5FC9F7880F911DF9
:102500009695879597F90895E1E0660F771F881FE4
:10251000BB1F621773078407BA0720F0621B730B97
:10252000840BBA0BEE1F88F7E09508950E949D1268
:102530006894B1110C94121108950E94F71088F05C
:102540009F5798F0B92F9927B751B0F0E1F0660F77
:10255000771F881F991F1AF0BA95C9F714C0B130B8
:1025600091F00E941111B1E008950C941111672FA0
:10257000782F8827B85F39F0B93FCCF386957795E7
:102580006795B395D9F73EF49095809570956195D0
:102590007F4F8F4F9F4F08950C94CD100E94F710DE
:1025A000D8F3E894E0E0BB279F57F0F02AED3FE036
:1025B00049EC06C0EE0FBB0F661F771F881F28F07F
:1025C000B23A62077307840728F0B25A620B730BA2
:1025D000840BE3959A9572F7803830F49A95BB0F87
:1025E000661F771F881FD2F790480C941A13EF9339
:1025F000E0FF07C0A2EA2AED3FE049EC5FEB0E9452
:10260000CA110E94DE100F90039401FC9058E8E676
:10261000F0E00C9426130E94361008F48FEF089512
:102620009F930E94CE120F9007FCEE5F0C94F7125E
:102630009F3F31F0915020F4879577956795B79536
:10264000880F911D9695879597F908959F938F937D
:102650007F936F93FF93EF939B01AC010E945A10FD
:10266000EF91FF910E943A132F913F914F915F910B
:102670000C945A10DF93CF931F930F93FF92EF9216
:10268000DF927B018C01689406C0DA2EEF010E9474
:102690006D10FE01E894A5912591359145915591D4
:1026A000A6F3EF010E94CA11FE019701A801DA9476
:1026B00069F7DF90EF90FF900F911F91CF91DF911D
:1026C0000895991B79E004C0991F961708F0961B8E
:1026D000881F7A95C9F780950895EE0FFF1F059022
:1026E000F491E02D0994AEE0B0E0E9E7F3E10C9459
:1026F0007A110D891E8986E08C831A8309838FEFF6
:102700009FE79E838D83AE01475E5F4F6F89788D13
:10271000CE0101960E9496132F813885020F131F58
:10272000F80110822E96E4E00C949611ABE0B0E034
:10273000ECE9F3E10C946C117C013B018A01FC0192
:1027400017821682838181FFC8C1CE0101965C0188
:10275000F7019381F30193FD859193FF81913F01EF
:10276000882309F453C1853239F493FD859193FF91
:1027700081913F01853229F4B70190E00E948615CE
:10278000E7CF912C212C312CFFE1F31538F08B325F
:1027900011F190F4803209F1833229F137FC3CC009
:1027A00020ED280F2A3050F536FE20C08AE0989E92
:1027B000200D1124922E06C08D3291F0803371F7D6
:1027C000689430F8F30193FD859193FF81913F0167
:1027D0008111DACF21C0689431F8689432F8F2CFD1
:1027E000689433F8EFCF689434F8ECCFEAE02E9E8B
:1027F000200D1124222E689435F8E4CF8E3229F46E
:1028000036FC04C1689436F8DDCF8C3619F4689430
:1028100037F8D8CF8836B1F2982F9F7D95549330F2
:10282000E0F08336A1F18337C1F1833509F063C04D
:102830002801F2E04F0E511CF801C080D180692DB3
:1028400070E036FC02C06FEF7FEFC6010E9470158A
:102850004C01689437F882010AC00C5F1F4FFFE3F8
:10286000F98388248394912C6501E89437F833FE2A
:102870002DC0522C8114910471F5552009F468CFB4
:10288000B70180E290E00E9486155A94F6CFF801D5
:10289000808189830E5F1F4FE4CF2801F2E04F0E45
:1028A000511CF801C080D180692D70E036FC02C057
:1028B0006FEF7FEFC6010E947B154C018201D5CFDF
:1028C000B70180E290E00E9486152A94281419042A
:1028D00009F0B0F7CECFF60137FC859137FE819134
:1028E0006F01B70190E00E94861551105A94F1E0F3
:1028F0008F1A9108BFCF843619F0893609F077C056
:10290000F80137FE6BC060817181828193810C5F19
:102910001F4FF32DFF763F2E97FF09C090958095AE
:10292000709561957F4F8F4F9F4F689437F82AE0DD
:1029300030E0A5010E94B615C82ECA188C2C432C75
:1029400036FE0CC0E89440F8C91440F434FE05C0CB
:1029500032FC03C0F32DFE7E4F2E892C44FE95C021
:10296000FE01EC0DF11D8081803309F087C0242D1C
:10297000297E422E842D8870582E43FC95C040FE3F
:102980008FC09C2C821418F42C0C922C981844FEA6
:1029900091C0B70180E390E00E94861542FE09C015
:1029A00088E790E041FE02C088E590E0B7010E9410
:1029B0008615C91408F48AC0CA94D12C9FEFC91A8D
:1029C000D90ACA0CDB1CF60182916F01B70190E0B5
:1029D0000E948615AC14BD04B1F74FCF60817181A0
:1029E000072E000C880B990B0E5F1F4F92CFD32C34
:1029F000E894D4F82AE030E0853739F1232D297F97
:102A0000D22E8F3601F148F48835A9F0F70186817E
:102A100097812B96E2E10C948811803749F0883732
:102A2000A9F7D4FE02C06894D2F820E130E00DC0CE
:102A30006894D4F8F6CF34FE03C0822F8660D82E77
:102A400020E132E002C028E030E0F801D7FE0FC0FC
:102A500060817181828193810C5F1F4FA5010E946B
:102A6000B615C82ECA183D2CE89437F867CF608198
:102A7000718190E080E00E5F1F4FF0CF42FC02C0FA
:102A8000839478CF8394839475CF842D867809F4CA
:102A900071CFF6CFB70180E290E00E948615839453
:102AA0008214C0F3512C73CF522C5818821408F49E
:102AB0006ECFF8CF842D867809F47BCF8BE241FE70
:102AC00080E247FC8DE2B70190E071CFB70180E36F
:102AD00090E00E9486159A946CCF8FEF9FEF99CF6C
:102AE000FC010590615070400110D8F780959095D9
:102AF0008E0F9F1F0895FC016150704001900110DE
:102B0000D8F7809590958E0F9F1F08950F931F9370
:102B1000CF93DF93182F092FEB018B8181FD09C023
:102B20001FEF0FEF812F902FDF91CF911F910F910A
:102B3000089582FF14C02E813F818C819D812817CA
:102B400039073CF4E881F981CF01019699838883A4
:102B500010838E819F8101969F838E83E3CFE885CA
:102B6000F985812F0995892BA1F3DACFFA01AA27DC
:102B7000283051F1203181F1E8946F936E7F6E5FC0
:102B80007F4F8F4F9F4FAF4FB1E03ED0B4E03CD06E
:102B9000670F781F891F9A1FA11D680F791F8A1F51
:102BA000911DA11D6A0F711D811D911DA11D20D0B8
:102BB00009F468943F912AE0269F11243019305D72
:102BC0003193DEF6CF010895462F4770405D419363
:102BD000B3E00FD0C9F7F6CF462F4F70405D4A33B0
:102BE00018F0495D31FD4052419302D0A9F7EACF78
:102BF000B4E0A6959795879577956795BA95C9F7A7
:102C000000976105710508959B01AC010A2E069499
:102C10005795479537952795BA95C9F7620F731F52
:102C2000841F951FA01D0895F894FFCF0000000099
:102C30008701DD001401D4014501230137010000A3
:102C400000001705EA044B0511010A01D704C80466
:102C50000D0A003E206E61636B00564D4450565F76
:102C6000317C315F564D4450560A00564D44505207
:102C70005F00564D4450455F003A323A007C005F99
:102C8000564D445045003E2072656164206661697E
:102C90006C6564004D45534D4552495A45442100E9
:102CA0004E6F2066696E67657220666F756E64216F
:102CB000004F68206E6F21205765206C6F73742061
:102CC0007468652066696E67657221006E6577209D
:102CD000626573742064697374616E63653A20255C
:102CE000642C2074686574613A2025642C20706817
:062CF000693A2025640092
:107E0000112484B714BE81FFF0D085E080938100F7
:107E100082E08093C00088E18093C10086E0809377
:107E2000C20080E18093C4008EE0C9D0259A86E02C
:107E300020E33CEF91E0309385002093840096BBD3
:107E4000B09BFECF1D9AA8958150A9F7CC24DD24C4
:107E500088248394B5E0AB2EA1E19A2EF3E0BF2EE7
:107E6000A2D0813461F49FD0082FAFD0023811F036
:107E7000013811F484E001C083E08DD089C08234E0
:107E800011F484E103C0853419F485E0A6D080C0E4
:107E9000853579F488D0E82EFF2485D0082F10E0AE
:107EA000102F00270E291F29000F111F8ED06801E7
:107EB0006FC0863521F484E090D080E0DECF843638
:107EC00009F040C070D06FD0082F6DD080E0C81688
:107ED00080E7D80618F4F601B7BEE895C0E0D1E017
:107EE00062D089930C17E1F7F0E0CF16F0E7DF06D8
:107EF00018F0F601B7BEE89568D007B600FCFDCFD4
:107F0000A601A0E0B1E02C9130E011968C91119780
:107F100090E0982F8827822B932B1296FA010C0160
:107F200087BEE89511244E5F5F4FF1E0A038BF0790
:107F300051F7F601A7BEE89507B600FCFDCF97BE46
:107F4000E89526C08437B1F42ED02DD0F82E2BD052
:107F50003CD0F601EF2C8F010F5F1F4F84911BD097
:107F6000EA94F801C1F70894C11CD11CFA94CF0C13
:107F7000D11C0EC0853739F428D08EE10CD085E9AC
:107F80000AD08FE07ACF813511F488E018D01DD067
:107F900080E101D065CF982F8091C00085FFFCCF94
:107FA0009093C60008958091C00087FFFCCF809118
:107FB000C00084FD01C0A8958091C6000895E0E648
:107FC000F0E098E1908380830895EDDF803219F02E
:107FD00088E0F5DFFFCF84E1DECF1F93182FE3DFCA
:107FE0001150E9F7F2DF1F91089580E0E8DFEE27F6
:047FF000FF270994CA
:027FFE00040479
:00000001FF
