:100000000C946C000C9494000C9494000C94940048
:100010000C9494000C9494000C9494000C94940010
:100020000C9494000C9494000C9494000C94A306EB
:100030000C9494000C9494000C9494000C949400F0
:100040000C9459060C9494000C9427060C94010609
:100050000C9494000C9494000C9494000C949400D0
:100060000C945F070C94940005A84CCDB2D44EB903
:100070003836A9020C50B9918688083CA6AAAA2A4B
:10008000BE000000803F00000008000201000003E5
:100090000407000000000000000000000000250030
:1000A00028002B0000000000240027002A00040480
:1000B0000404040404040202020202020303030310
:1000C00003030102040810204080010204081020EC
:1000D0000102040810207E0811241FBECFEFD8E0D3
:1000E000DEBFCDBF11E0A0E0B1E0E4E8F7E202C07E
:1000F00005900D92AE39B107D9F723E0AEE9B1E032
:1001000001C01D92A339B207E1F710E0CCE6D0E0C0
:1001100004C02197FE010E941911CB36D107C9F7FF
:100120000E943E090C94C0130C94000090E0FC0166
:10013000EE53FF4F249182559F4FFC0184918823F9
:1001400099F090E0880F991FFC01EC55FF4FA591A5
:10015000B491FC01E656FF4F859194918FB7F894C6
:10016000EC91E22BEC938FBF0895AF92BF92CF92A8
:10017000DF92EF92FF920F931F93CF93DF936C0167
:100180007B018B01040F151FEB015E01AE18BF0848
:10019000C017D10759F06991D601ED91FC910190FA
:1001A000F081E02DC6010995892B79F7C501DF9112
:1001B000CF911F910F91FF90EF90DF90CF90BF9064
:1001C000AF9008958091F0019091F101891B990BF6
:1001D000089508950895FC01538D448D252F30E036
:1001E000842F90E0821B930B541710F0CF96089544
:1001F00001970895FC01918D828D981761F0A28D71
:10020000AE0FBF2FB11D5D968C91928D9F5F9F7336
:10021000928F90E008958FEF9FEF0895FC01918DEC
:10022000828D981731F0828DE80FF11D858D90E059
:1002300008958FEF9FEF0895FC01918D228D892FF6
:1002400090E0805C9F4F821B91098F7399270895DE
:1002500082E692E00E941C0121E0892B09F420E053
:10026000822F089580E090E0892B29F00E942801D8
:1002700081110C9400000895FC01A48DA80FB92FE2
:10028000B11DA35ABF4F2C91848D90E001968F73BE
:100290009927848FA689B7892C93A089B1898C91DD
:1002A000837080648C93938D848D981306C002882C
:1002B000F389E02D80818F7D80830895EF92FF92F6
:1002C0000F931F93CF93DF93EC0181E0888F9B8D79
:1002D0008C8D98131AC0E889F989808185FF15C033
:1002E0009FB7F894EE89FF896083E889F989808156
:1002F0008370806480839FBF81E090E0DF91CF9125
:100300001F910F91FF90EF900895F62E0B8D10E046
:100310000F5F1F4F0F731127E02E8C8D8E110CC0B5
:100320000FB607FCFACFE889F989808185FFF5CF00
:10033000CE010E943C01F1CFEB8DEC0FFD2FF11DA2
:10034000E35AFF4FF0829FB7F8940B8FEA89FB893D
:1003500080818062CFCFCF93DF93EC01888D88239B
:10036000B9F0AA89BB89E889F9898C9185FD03C018
:10037000808186FD0DC00FB607FCF7CF8C9185FFFD
:10038000F2CF808185FFEDCFCE010E943C01E9CF05
:10039000DF91CF91089590E0FC01EA57FF4F24913F
:1003A000FC01EE53FF4F3491FC01E255FF4FE49105
:1003B000EE23C9F0222339F0233001F1A8F42130D3
:1003C00019F1223029F1F0E0EE0FFF1FE656FF4F42
:1003D000A591B4918FB7F894EC91611126C0309536
:1003E0003E233C938FBF08952730A9F02830C9F0F1
:1003F000243049F7809180008F7D03C08091800078
:100400008F7780938000DFCF84B58F7784BDDBCF7B
:1004100084B58F7DFBCF8091B0008F778093B00043
:10042000D2CF8091B0008F7DF9CF3E2BDACF3FB78E
:10043000F8948091E8019091E901A091EA01B091CE
:10044000EB0126B5A89B05C02F3F19F00196A11D11
:10045000B11D3FBFBA2FA92F982F8827BC01CD010E
:10046000620F711D811D911D42E0660F771F881F6D
:10047000991F4A95D1F70895CF92DF92EF92FF929C
:10048000CF93DF93EC01603282E07807CCF5653BD7
:10049000710514F064EB70E0898128E830E0281BD6
:1004A000310987FD3395220F331F220F331F690156
:1004B000330FEE08FF088A8128E532E0281B310956
:1004C00087FD3395220F331F220F331F032E000C9D
:1004D000440B550B2C193D094E095F09DB0177FFD1
:1004E00002C0B0E0A0E00E94100F24EB30E040E03A
:1004F00050E00E94E60EC20ED31EE41EF51EB601A9
:10050000E881EC3070F5298188E890E0821B910940
:1005100027FD9395880F991F880F991F68177907F2
:100520007CF02A8188E592E0821B910927FD939552
:10053000880F991F880F991F681779070CF4CB0152
:100540000297880F991F4FB7F8942E2F30E0F901CA
:10055000EE0FFF1FE20FF31FEF5AFC4F92838183D0
:100560004FBFDF91CF91FF90EF90DF90CF90089534
:10057000892B79F41092800082E0809381001092A0
:10058000850010928400B19A80916F008260809300
:100590006F0008952091BF01260F3327331F2132AA
:1005A0003105ECF420913802FC0190E080E0243029
:1005B00069F082E00895A091BF012191AC014156FC
:1005C0005E4FA40FB52FB11D2C930196861798F39B
:1005D0008091BF01680F6093BF0180E0089581E0C2
:1005E00008951092380281E080933702109212022F
:1005F00061E082E10E94CB0161E083E10E94CB01D6
:10060000E9EBF0E080818E7F808380818D7F808325
:1006100088E48093B80085E48093BC000895CF936C
:10062000DF9391E090939E018823B9F0C091B800C8
:10063000D091BA008091BC008A7B8093BC0060E0BE
:1006400082E10E94CB0160E083E10E94CB010E9425
:10065000F102D093BA00C093B800DF91CF91089512
:100660008F929F92AF92BF92CF92DF92EF92FF92C2
:100670000F931F93CF93DF93D0916102D13208F093
:10068000D7C0182FC09160020E9417026B017C0135
:100690008091380281116BC082E080933802109300
:1006A00037028FEF8093360210923502D0933402D6
:1006B000A0E4B2E0E4E1F2E080E0D81391C010924F
:1006C000130280911302CC0FC82BC09313028091A8
:1006D0001202813009F088C0109212020E941702A3
:1006E0006B017C01809113028093BB0080913A02E0
:1006F00090913B02A0913C02B0913D02892B8A2B44
:100700008B2BA1F00E94170200913A0210913B023C
:1007100020913C0230913D026C197D098E099F09A0
:10072000061717072807390708F442C08091BC0054
:1007300083FDD8CF85EC8093BC000E9417026B012B
:100740007C0180913802823009F450C080913602D9
:100750008F3F09F46FC080913602803209F46CC07B
:1007600080913602803309F469C084E026C080910C
:100770003A0290913B02A0913C02B0913D02892B3C
:100780008A2B8B2B09F484CF0E94170280903A02A7
:1007900090903B02A0903C02B0903D026C197D0904
:1007A0008E099F0986169706A806B90608F070CF2D
:1007B000809139020E940F0385E010923F0210924F
:1007C000610210923E02DF91CF911F910F91FF9035
:1007D000EF90DF90CF90BF90AF909F908F90089553
:1007E0009D9191938F5F69CF85EEA5CF80913A025D
:1007F00090913B02A0913C02B0913D02892B8A2B43
:100800008B2B09F49ECF0E94170200913A0210919F
:100810003B0220913C0230913D026C197D098E090A
:100820009F09061717072807390708F08ACFC0CF96
:1008300081E0C3CF80E0C1CF82E0BFCF83E0BDCFF6
:10084000CF92DF92EF92FF920F931F93CF93DF939C
:10085000D82FC62F613208F098C00E9417026B0192
:100860007C018091380281116BC081E08093380255
:10087000809337029FEF90933602109235029C0FBF
:10088000909334028093130280911302DD0FD82BD2
:10089000D093130280911202813009F078C0109237
:1008A00012020E9417026B017C0180911302809357
:1008B000BB0080913A0290913B02A0913C02B09122
:1008C0003D02892B8A2B8B2BA1F00E9417020091ED
:1008D0003A0210913B0220913C0230913D026C198A
:1008E0007D098E099F09061717072807390708F49D
:1008F00048C08091BC0083FDD8CF85EC8093BC00BC
:100900000E9417026B017C0180913802813009F44A
:1009100040C0809135028C1710F4C0913502E4E19B
:10092000F2E0A2EFB1E080E08C1355C08C2FDF9194
:10093000CF911F910F91FF90EF90DF90CF9008958E
:1009400080913A0290913B02A0913C02B0913D020D
:10095000892B8A2B8B2B09F484CF0E9417020091DC
:100960003A0210913B0220913C0230913D026C19F9
:100970007D098E099F09061717072807390708F010
:1009800070CF809139020E940F03C0E0CFCF85EE77
:10099000B5CF80913A0290913B02A0913C02B09178
:1009A0003D02892B8A2B8B2B09F4AECF0E941702B4
:1009B00000913A0210913B0220913C0230913D029D
:1009C0006C197D098E099F09061717072807390733
:1009D00008F09ACFD6CF91919D938F5FA5CF0895C0
:1009E000E091F1018091F001E81730F4F0E0EE5071
:1009F000FE4F808190E008958FEF9FEF08959091D2
:100A0000F1018091F0012FEF3FEF981748F4E92FA3
:100A1000F0E0EE50FE4F208130E09F5F9093F101B7
:100A2000C9010895CF92DF92EF92FF920F931F9327
:100A3000CF93DF937C01CB018A0120913E022223D8
:100A400089F0EB016B01C40ED51ECC15DD0569F0F4
:100A50006991D701ED91FC910190F081E02DC701E2
:100A60000995F3CF642F0E94CA02C801DF91CF918C
:100A70001F910F91FF90EF90DF90CF900895CF934B
:100A8000DF931F92CDB7DEB7698320913E02222308
:100A9000F9F020916102203258F021E030E0FC01B1
:100AA0003383228390E080E00F90DF91CF9108950F
:100AB00080913F02E82FF0E0E05CFD4F9981908348
:100AC0008F5F80933F028093610281E090E0ECCFE2
:100AD00061E0CE0101960E94CA02F7CF682F8FEF26
:100AE00092E00C943F0590E080E00895CF93DF936F
:100AF000FC0101900020E9F73197AF01481B590B29
:100B0000BC0182E692E00E94B500EC0142E050E0B8
:100B100064E271E082E692E00E94B5008C0F9D1FB6
:100B2000DF91CF910895CF92DF92EF92FF92F62E50
:100B300091E090933E0292E69093600210923F0201
:100B400010926102082E000C990B0E946E058F2DE9
:100B5000FF0C990B0E946E0581E00E9430038823F0
:100B600021F087E291E00E9476050E9417026B0156
:100B70007C010E9417026C197D098E099F09683E4D
:100B8000734081059105A8F3FF90EF90DF90CF901F
:100B9000089585ED8093BC0080913A0290913B02CC
:100BA000A0913C02B0913D020796A11DB11D23E02A
:100BB000B695A795979587952A95D1F72091BC0072
:100BC00024FD03C010923802089540913A025091DA
:100BD0003B0260913C0270913D02452B462B472B16
:100BE00069F30097A105B10541F025E32A95F1F7D6
:100BF00000000197A109B109E1CF809139020C945D
:100C00000F031F920F920FB60F9211242F933F9351
:100C10004F935F936F937F938F939F93AF93BF9304
:100C2000EF93FF9382E692E00E943C01FF91EF91E7
:100C3000BF91AF919F918F917F916F915F914F91F4
:100C40003F912F910F900FBE0F901F9018951F92FC
:100C50000F920FB60F9211242F938F939F93EF93C0
:100C6000FF93E0917202F09173028081E09178022B
:100C7000F091790282FD1BC0908180917B028F5F91
:100C80008F7320917C02821741F0E0917B02F0E0AB
:100C9000EE59FD4F958F80937B02FF91EF919F91CD
:100CA0008F912F910F900FBE0F901F9018958081FC
:100CB000F4CF1F920F920FB60F9211242F933F93F0
:100CC0008F939F93AF93BF938091E4019091E5013F
:100CD000A091E601B091E7013091E30123E0230FF9
:100CE0002D3758F50196A11DB11D2093E301809386
:100CF000E4019093E501A093E601B093E7018091B0
:100D0000E8019091E901A091EA01B091EB0101960F
:100D1000A11DB11D8093E8019093E901A093EA0120
:100D2000B093EB01BF91AF919F918F913F912F9124
:100D30000F900FBE0F901F90189526E8230F029674
:100D4000A11DB11DD2CF1F920F920FB60F92112489
:100D50002F933F934F935F936F937F938F939F93C3
:100D6000AF93BF93CF93DF93EF93FF938091E20113
:100D7000C0917503D0E087FF24C0109285001092C7
:100D800084008091E2018F5F8093E2018091E20113
:100D9000082E000C990B8C179D0724F48091E2011A
:100DA0008C30C4F180918400909185000496803449
:100DB0009C4908F47AC08091840090918500049643
:100DC00076C08091E201082E000C990B8C179D07CC
:100DD000C4F6E091E2018E2FEE0F990BFC01EE0FAD
:100DE000FF1FE80FF91FEF5AFC4F808186FFC9CF24
:100DF000E091E2018E2FEE0F990BFC01EE0FFF1F29
:100E0000E80FF91FEF5AFC4F808160E08F730E945A
:100E1000CB01B7CF2091840030918500E091E201B1
:100E20008E2FEE0F990BFC01EE0FFF1FE80FF91F3D
:100E3000EF5AFC4F81819281820F931F909389001A
:100E400080938800E091E2018E2FEE0F990BFC0158
:100E5000EE0FFF1FE80FF91FEF5AFC4F808186FF4E
:100E600011C0E091E2018E2FEE0F990BFC01EE0F05
:100E7000FF1FE80FF91FEF5AFC4F808161E08F736D
:100E80000E94CB01FF91EF91DF91CF91BF91AF9184
:100E90009F918F917F916F915F914F913F912F9192
:100EA0000F900FBE0F901F90189580E49CE99093CF
:100EB0008900809388008FEF8093E201E3CF1F9237
:100EC0000F920FB60F9211242F933F934F935F937E
:100ED0006F937F938F939F93AF93BF93EF93FF9302
:100EE0008091B900887F803609F44AC0F0F58832D5
:100EF00009F4A7C018F5803109F49BC0B8F4882321
:100F000009F4F9C0883009F494C0FF91EF91BF91C2
:100F1000AF919F918F917F916F915F914F913F9191
:100F20002F910F900FBE0F901F901895883109F4E4
:100F300088C0803251F78093360214C0803409F49F
:100F40009DC040F48033B9F38833F9F680933602BC
:100F500085ECB0C0803509F485C0883509F496C0A9
:100F6000883499F60E94C905D0CF883909F48CC01D
:100F700038F5883729F050F4883611F0803729F693
:100F800083E0809338021092E10157C0883809F459
:100F90007BC0803919F0803809F0B7CF8091E1012A
:100FA000803208F071C0E091E10181E08E0F809302
:100FB000E1018091BB00F0E0EF53FE4F80833DC024
:100FC000803B39F0E0F4803A09F479C0883A09F0BE
:100FD0009CCF84E0809338021092C0011092BF0130
:100FE000E091EE01F091EF0109958091BF0181112F
:100FF0000FC081E08093BF0110929F0109C0803C27
:1010000009F4A6CF883C09F4A3CF883B09F07DCF33
:10101000E091C00181E08E0F8093C001F0E0E156C5
:10102000FE4F80818093BB009091C0018091BF01F1
:1010300029C0809113028093BB0085EC8093BC0093
:1010400064CF9091350280913402981758F5E09161
:10105000350281E08E0F80933502F0E0EC5EFD4FAB
:101060008081E9CFE091350281E08E0F80933502D7
:101070008091BB00F0E0EC5EFD4F808390913502E3
:10108000809134029817C8F285E8D8CFE0913502F4
:1010900081E08E0F809335028091BB00F0E0EC5E22
:1010A000FD4F80838091370281115CCF81E0809376
:1010B000120284EA8093BC001092380226CF85EC9D
:1010C0008093BC00109238028091E101803230F4AC
:1010D000E091E101F0E0EF53FE4F10826091E101F9
:1010E00070E0E091EC01F091ED0181EC91E0099567
:1010F0001092E1010ACF1092360234CF10926502AD
:101100001092640288EE93E0A0E0B0E08093660263
:1011100090936702A0936802B093690224E031E0E3
:10112000309363022093620225EC30E030936F022B
:1011300020936E0224EC30E0309371022093700211
:1011400020EC30E0309373022093720221EC30E007
:10115000309375022093740222EC30E030937702D2
:101160002093760226EC30E03093790220937802C7
:1011700010927B0210927C0210927D0210927E02ED
:1011800010920203109201038093030390930403CF
:10119000A0930503B093060386E191E090930003CA
:1011A0008093FF0210921103109212031092130306
:1011B0001092140310921503109216031092170345
:1011C000109218031092190310921A0310921B0325
:1011D00010921C0310921D0310921E0310921F0305
:1011E00010922003809175038C3008F03FC091E08D
:1011F000980F909375038093770390E0FC01EE0FB6
:10120000FF1FE80FF91FEF5AFC4F88EB9BE092831A
:101210008183809175038C3068F591E0980F9093ED
:10122000750380937A0390E0FC01EE0FFF1FE80F37
:10123000F91FEF5AFC4F88EB9BE0928381838AE58C
:1012400090E090937E0380937D0383E290E09093FF
:10125000800380937F0310928203109281038FEFAB
:101260009FEF909384038093830308958FEF80937F
:101270007703CFCF8FEF80937A03E1CFCF93DF93C4
:10128000CDB7DEB7C25DD1090FB6F894DEBF0FBE91
:10129000CDBF789484B5826084BD84B5816084BDFF
:1012A00085B5826085BD85B5816085BD80916E0004
:1012B000816080936E001092810080918100826035
:1012C0008093810080918100816080938100809172
:1012D00080008160809380008091B1008460809361
:1012E000B1008091B00081608093B00080917A005D
:1012F000846080937A0080917A00826080937A0083
:1013000080917A00816080937A0080917A00806871
:1013100080937A001092C100E0917202F091730202
:1013200082E08083E0916E02F0916F021082E09182
:101330007002F091710283E3808310927A02E0914F
:101340007602F091770286E08083E0917402F0915A
:101350007502808180618083E0917402F091750252
:10136000808188608083E0917402F09175028081B1
:1013700080688083E0917402F091750280818F7D96
:1013800080831092F1011092F00110923F021092AE
:1013900061020E94F10289EE90E09093EF01809348
:1013A000EE018AEE90E09093ED018093EC011CE059
:1013B0001093B80060E882E00E94930568E084E042
:1013C0000E94930560E08CE10E9493058091770371
:1013D0008C3008F041C086E00E949600809177032F
:1013E000282F30E0F901EE0FFF1FE20FF31FEF5A35
:1013F000FC4F9081907C96609083109278031092BD
:101400007903612F0E940D1190E0819FB00111249A
:1014100030E020E0AB01420F531FFA01EE0FFF1F37
:10142000E40FF51FEF5AFC4F408146FD07C02F5FC8
:101430003F4F2C30310571F70E94B802E0917703DD
:101440008E2F90E0FC01EE0FFF1FE80FF91FEF5AFF
:10145000FC4F80818064808380917A038C3008F017
:1014600042C089E00E94960080917A03282F30E0E4
:10147000F901EE0FFF1FE20FF31FEF5AFC4F9081AF
:10148000907C9960908310927B0310927C032CE0F7
:10149000622F0E940D1190E0829FB001112430E074
:1014A00020E0AB01420F531FFA01EE0FFF1FE40FC4
:1014B000F51FEF5AFC4F408146FD07C02F5F3F4F9D
:1014C0002C30310571F70E94B802E0917A038E2F1B
:1014D00090E0FC01EE0FFF1FE80FF91FEF5AFC4FE1
:1014E00080818064808395E0292E312C2AE0A22E11
:1014F000B12C412C512C612C30E4732E64E080E03F
:101500000E94930500E117E221E020933E0232E6BB
:101510003093600210923F021092610281E090E0ED
:101520000E946E0581E00E943003882321F087E24B
:1015300091E00E94760561E082E60E94200410920C
:10154000F1018093F0018FEF92E00E94FF0481701F
:1015500099270150110929F48EE291E00E94760545
:1015600035C0892B89F681E080933E0292E6909304
:10157000600210923F02109261028FE89FEF0E947A
:101580006E0581E00E943003882321F087E291E01C
:101590000E94760562E082E60E9420041092F1012A
:1015A0008093F001823090F08FEF92E00E94FF0470
:1015B000C253DF4F8883CE5CD0408FEF92E00E9411
:1015C000FF04C753DF4F8883C95CD040C253DF4F4D
:1015D0002881CE5CD040822E912C982C8824C75331
:1015E000DF4F3881C95CD040830E911C009181038C
:1015F000109182030230110509F43CC108F064C067
:101600000115110509F41BC10130110509F423C2AC
:10161000809183039091840397FD03C088169906F7
:10162000DCF596E089169104BCF1809180038F93DC
:1016300080917F038F9380917E038F9380917D03B0
:101640008F939F928F9224E731E03F932F9321E075
:1016500030E02C0F3D1F3F932F930E941F11CE01AE
:1016600001960E9476059092840380928303809174
:101670007D0390917E0390938603809385038091F0
:101680007F039091800390938803809387030FB624
:10169000F894DEBF0FBECDBF8091890390918A037D
:1016A000019797FD48C290938A038093890320E0B5
:1016B00030E0232B09F422CF0E942801882309F46B
:1016C0001DCF0E9400001ACF0330110509F458C144
:1016D0000530110509F09CCF8091890390918A0310
:1016E000892B09F095CF8091830390918403940115
:1016F000281B390B2E3131050CF0F6C1C0908B033D
:10170000D0908C03E0908D03F0908E0300918503C0
:101710001091860320E030E040E052E4C701B601BA
:101720000E94A00D87FFCCC120E030E040E05FE3E5
:10173000C701B6010E945F0F6B017C01C0928B0351
:10174000D0928C03E0928D03F0928E03AC019B014A
:101750006BED7FE089E490E40E94D00F20918F032D
:101760003091900340919103509192030E945F0F3A
:1017700060938F03709390038093910390939203EF
:101780000E94CB0FC653DF4F688379838A839B8384
:10179000CA5CD040B801110F880B990B0E94A70DAD
:1017A000C153DF4F688379838A839B83CF5CD040AA
:1017B000C653DF4F288139814A815B81CA5CD040A2
:1017C000C701B6010E94060E9B01AC01C153DF4F59
:1017D000688179818A819B81CF5CD0400E945F0FB4
:1017E0000E94421070937E0360937D0387E793E02D
:1017F0000E943C0260918F0370919003809191034D
:10180000909192030E94BC1020918B0330918C0325
:1018100040918D0350918E030E94060E6B017C0156
:101820006091870370918803072E000C880B990B39
:101830000E94A70D9B01AC01C701B60190C0109298
:101840008A031092890340928B0350928C0360921A
:101850008D0370928E0310928F031092900310925A
:1018600091031092920382E090E090938203809320
:101870008103CECE8091890390918A03892B09F050
:10188000C7CEC0908B03D0908C03E0908D03F09076
:101890008E0320E030E040E052E4C701B6010E9430
:1018A000A00D87FFB5C020E030E040E05FE3C70156
:1018B000B6010E945F0F6B017C01C0928B03D09236
:1018C0008C03E0928D03F0928E03AC019B016BEDD3
:1018D0007FE089E490E40E94D00F20918F03309143
:1018E000900340919103509192030E945F0F609387
:1018F0008F037093900380939103909392030E94BF
:10190000CB0F9B01AC01C701B6010E94060E20E07F
:1019100030E044EB52E40E945F0F0E94421070934B
:101920007E0360937D0387E793E00E943C02609111
:101930008F037091900380919103909192030E9484
:10194000BC1020918B0330918C0340918D035091FA
:101950008E030E94060E20E030E046EA52E40E9428
:101960005F0F0E9442107093800360937F038AE7A9
:1019700093E00E943C02B0928A03A092890348CE71
:101980008091890390918A03892B09F041CEC09000
:101990008B03D0908C03E0908D03F0908E0320E0B9
:1019A00030E040E850E4C701B6010E94B7101816B5
:1019B0003CF520E030E040E05FE3C701B6010E9463
:1019C0005E0F6B017C01C0928B03D0928C03E0927E
:1019D0008D03F0928E03AC019B016BED7FE089E4F7
:1019E00090E40E94D00F9B01AC0160918F03709135
:1019F000900380919103909192030E945E0F77CFA4
:101A000040928B0350928C0360928D0370928E03F0
:101A100081E090E09093820380938103609185033D
:101A20007091860370937E0360937D0387E793E054
:101A30000E943C0260918703709188037093800339
:101A400060937F038AE793E00E943C0230928A030E
:101A500020928903DDCD8091890390918A03892B9F
:101A600009F0D6CD80918303909184039401281BC3
:101A7000390B2E3131056CF48CE391E00E94760530
:101A8000309282032092810310928A03109289037C
:101A9000BFCD88E491E00E94760582E090E09093CB
:101AA00082038093810310928A031092890310921B
:101AB0008F03109290031092910310929203A8CD7D
:101AC00086E090E0909382038093810310937E03DD
:101AD00000937D03B80187E793E00E943C02609188
:101AE0008703709188033FCF89E591E00E947605D6
:101AF00081E090E09093820380938103609185035D
:101B00007091860370937E0360937D0387E793E073
:101B10000E943C0260918703709188037093800358
:101B200060937F038AE793E00E943C0210938A034C
:101B3000009389036DCD10928A0310928903B7CD6B
:101B40000E94E20D08F481E00895E89409C097FB33
:101B50003EF490958095709561957F4F8F4F9F4F84
:101B60009923A9F0F92F96E9BB279395F6958795C8
:101B700077956795B795F111F8CFFAF4BB0F11F48B
:101B800060FF1BC06F5F7F4F8F4F9F4F16C0882332
:101B900011F096E911C0772321F09EE8872F762F68
:101BA00005C0662371F096E8862F70E060E02AF0A9
:101BB0009A95660F771F881FDAF7880F9695879595
:101BC00097F90895990F0008550FAA0BE0E8FEEF6A
:101BD00016161706E807F907C0F012161306E407F1
:101BE000F50798F0621B730B840B950B39F40A26EA
:101BF00061F0232B242B252B21F408950A2609F4C8
:101C0000A140A6958FEF811D811D08950E94190E98
:101C10000C948A0E0E947C0E38F00E94830E20F0F5
:101C2000952311F00C94730E0C94790E11240C94DE
:101C3000BE0E0E949B0E70F3959FC1F3950F50E06E
:101C4000551F629FF001729FBB27F00DB11D639F6E
:101C5000AA27F00DB11DAA1F649F6627B00DA11D14
:101C6000661F829F2227B00DA11D621F739FB00DBA
:101C7000A11D621F839FA00D611D221F749F33272A
:101C8000A00D611D231F849F600D211D822F762FC3
:101C90006A2F11249F5750409AF0F1F088234AF0A0
:101CA000EE0FFF1FBB1F661F771F881F915050400C
:101CB000A9F79E3F510580F00C94730E0C94BE0E54
:101CC0005F3FE4F3983ED4F3869577956795B79593
:101CD000F795E7959F5FC1F7FE2B880F911D9695AD
:101CE000879597F9089597F99F6780E870E060E01D
:101CF00008959FEF80EC089500240A9416161706A5
:101D000018060906089500240A94121613061406EC
:101D100005060895092E0394000C11F4882352F04F
:101D2000BB0F40F4BF2B11F460FF04C06F5F7F4F07
:101D30008F4F9F4F089557FD9058440F551F59F0EE
:101D40005F3F71F04795880F97FB991F61F09F3FA8
:101D500079F087950895121613061406551FF2CFD1
:101D60004695F1DF08C0161617061806991FF1CF21
:101D700086957105610508940895E894BB27662748
:101D80007727CB0197F90895A1E21A2EAA1BBB1B56
:101D9000FD010DC0AA1FBB1FEE1FFF1FA217B30737
:101DA000E407F50720F0A21BB30BE40BF50B661F4D
:101DB000771F881F991F1A9469F760957095809511
:101DC00090959B01AC01BD01CF010895052E97FBB5
:101DD0001EF400940E94FD0E57FD07D00E94C40E11
:101DE00007FC03D04EF40C94FD0E509540953095B1
:101DF00021953F4F4F4F5F4F089590958095709577
:101E000061957F4F8F4F9F4F08950E944F0FA59F61
:101E1000900DB49F900DA49F800D911D11240895E5
:101E2000B7FF0C94050F0E94050F821B930B0895BA
:101E30002F923F924F925F926F927F928F929F92DA
:101E4000AF92BF92CF92DF92EF92FF920F931F93C8
:101E5000CF93DF93CDB7DEB7CA1BDB0B0FB6F89479
:101E6000DEBF0FBECDBF09942A88398848885F84B9
:101E70006E847D848C849B84AA84B984C884DF802A
:101E8000EE80FD800C811B81AA81B981CE0FD11D0E
:101E90000FB6F894DEBF0FBECDBFED010895A29F2F
:101EA000B001B39FC001A39F700D811D1124911D2E
:101EB000B29F700D811D1124911D08955058BB27AC
:101EC000AA270E94760F0C948A0E0E947C0E38F08E
:101ED0000E94830E20F039F49F3F19F426F40C94ED
:101EE000790E0EF4E095E7FB0C94730EE92F0E9437
:101EF0009B0E58F3BA17620773078407950720F003
:101F000079F4A6F50C94BD0E0EF4E0950B2EBA2FC5
:101F1000A02D0B01B90190010C01CA01A0011124EF
:101F2000FF27591B99F0593F50F4503E68F11A169B
:101F3000F040A22F232F342F4427585FF3CF46952C
:101F400037952795A795F0405395C9F77EF41F164E
:101F5000BA0B620B730B840BBAF09150A1F0FF0F18
:101F6000BB1F661F771F881FC2F70EC0BA0F621F04
:101F7000731F841F48F4879577956795B795F795F4
:101F80009E3F08F0B0CF9395880F08F09927EE0F89
:101F90009795879508950E947A10E3950C94A31065
:101FA0000E94E40F0C948A0E0E94830E58F00E9447
:101FB0007C0E40F029F45F3F29F00C94730E511110
:101FC0000C94BE0E0C94790E0E949B0E68F399231C
:101FD000B1F3552391F3951B550BBB27AA27621725
:101FE0007307840738F09F5F5F4F220F331F441F32
:101FF000AA1FA9F335D00E2E3AF0E0E832D0915066
:102000005040E695001CCAF72BD0FE2F29D0660F52
:10201000771F881FBB1F261737074807AB07B0E895
:1020200009F0BB0B802DBF01FF2793585F4F3AF09B
:102030009E3F510578F00C94730E0C94BE0E5F3FDA
:10204000E4F3983ED4F3869577956795B795F79521
:102050009F5FC9F7880F911D9695879597F9089509
:10206000E1E0660F771F881FBB1F621773078407A5
:10207000BA0720F0621B730B840BBA0BEE1F88F7B4
:10208000E09508950E9449106894B1110C94BE0E19
:1020900008950E94A30E88F09F5798F0B92F9927B2
:1020A000B751B0F0E1F0660F771F881F991F1AF043
:1020B000BA95C9F714C0B13091F00E94BD0EB1E0DD
:1020C00008950C94BD0E672F782F8827B85F39F0DC
:1020D000B93FCCF3869577956795B395D9F73EF4DC
:1020E00090958095709561957F4F8F4F9F4F089584
:1020F0000C94790E0E94A30ED8F3E894E0E0BB277D
:102100009F57F0F02AED3FE049EC06C0EE0FBB0F01
:10211000661F771F881F28F0B23A6207730784078B
:1021200028F0B25A620B730B840BE3959A9572F701
:10213000803830F49A95BB0F661F771F881FD2F73F
:1021400090480C94C610EF93E0FF07C0A2EA2AED76
:102150003FE049EC5FEB0E94760F0E948A0E0F90E1
:10216000039401FC9058E8E6F0E00C94D2100E9431
:10217000E20D08F48FEF08959F930E947A100F905C
:1021800007FCEE5F0C94A3109F3F31F0915020F4B8
:10219000879577956795B795880F911D9695879543
:1021A00097F908959F938F937F936F93FF93EF9386
:1021B0009B01AC010E94060EEF91FF910E94E61078
:1021C0002F913F914F915F910C94060EDF93CF9327
:1021D0001F930F93FF92EF92DF927B018C01689423
:1021E00006C0DA2EEF010E94190EFE01E894A591B7
:1021F0002591359145915591A6F3EF010E94760FF7
:10220000FE019701A801DA9469F7DF90EF90FF9043
:102210000F911F91CF91DF910895991B79E004C030
:10222000991F961708F0961B881F7A95C9F7809515
:102230000895EE0FFF1F0590F491E02D0994AEE094
:10224000B0E0E5E2F1E10C94260F0D891E8986E0ED
:102250008C831A8309838FEF9FE79E838D83AE0162
:10226000475E5F4F6F89788DCE0101960E944211C3
:102270002F813885020F131FF80110822E96E4E09B
:102280000C94420FABE0B0E0E8E4F1E10C94180FDD
:102290007C013B018A01FC0117821682838181FF48
:1022A000C8C1CE0101965C01F7019381F30193FD52
:1022B000859193FF81913F01882309F453C18532B1
:1022C00039F493FD859193FF81913F01853229F483
:1022D000B70190E00E943213E7CF912C212C312CD2
:1022E000FFE1F31538F08B3211F190F4803209F1EF
:1022F000833229F137FC3CC020ED280F2A3050F5FD
:1023000036FE20C08AE0989E200D1124922E06C031
:102310008D3291F0803371F7689430F8F30193FDBA
:10232000859193FF81913F018111DACF21C068949B
:1023300031F8689432F8F2CF689433F8EFCF6894AC
:1023400034F8ECCFEAE02E9E200D1124222E689462
:1023500035F8E4CF8E3229F436FC04C1689436F89F
:10236000DDCF8C3619F4689437F8D8CF8836B1F2BF
:10237000982F9F7D95549330E0F08336A1F18337F9
:10238000C1F1833509F063C02801F2E04F0E511C02
:10239000F801C080D180692D70E036FC02C06FEF7B
:1023A0007FEFC6010E941C134C01689437F882012C
:1023B0000AC00C5F1F4FFFE3F98388248394912C9C
:1023C0006501E89437F833FE2DC0522C8114910436
:1023D00071F5552009F468CFB70180E290E00E94C2
:1023E00032135A94F6CFF801808189830E5F1F4F14
:1023F000E4CF2801F2E04F0E511CF801C080D180DB
:10240000692D70E036FC02C06FEF7FEFC6010E94BD
:1024100027134C018201D5CFB70180E290E00E94E2
:1024200032132A942814190409F0B0F7CECFF6011C
:1024300037FC859137FE81916F01B70190E00E94D2
:10244000321351105A94F1E08F1A9108BFCF84369D
:1024500019F0893609F077C0F80137FE6BC060814A
:102460007181828193810C5F1F4FF32DFF763F2E88
:1024700097FF09C090958095709561957F4F8F4F1C
:102480009F4F689437F82AE030E0A5010E9462135C
:10249000C82ECA188C2C432C36FE0CC0E89440F889
:1024A000C91440F434FE05C032FC03C0F32DFE7E97
:1024B0004F2E892C44FE95C0FE01EC0DF11D80814C
:1024C000803309F087C0242D297E422E842D887008
:1024D000582E43FC95C040FE8FC09C2C821418F4EB
:1024E0002C0C922C981844FE91C0B70180E390E028
:1024F0000E94321342FE09C088E790E041FE02C00C
:1025000088E590E0B7010E943213C91408F48AC02C
:10251000CA94D12C9FEFC91AD90ACA0CDB1CF60148
:1025200082916F01B70190E00E943213AC14BD0498
:10253000B1F74FCF60817181072E000C880B990B8A
:102540000E5F1F4F92CFD32CE894D4F82AE030E0EE
:10255000853739F1232D297FD22E8F3601F148F4AA
:102560008835A9F0F701868197812B96E2E10C94DA
:10257000340F803749F08837A9F7D4FE02C0689439
:10258000D2F820E130E00DC06894D4F8F6CF34FEE4
:1025900003C0822F8660D82E20E132E002C028E0FE
:1025A00030E0F801D7FE0FC0608171818281938194
:1025B0000C5F1F4FA5010E946213C82ECA183D2C44
:1025C000E89437F867CF6081718190E080E00E5F1A
:1025D0001F4FF0CF42FC02C0839478CF8394839442
:1025E00075CF842D867809F471CFF6CFB70180E2DC
:1025F00090E00E94321383948214C0F3512C73CF65
:10260000522C5818821408F46ECFF8CF842D867897
:1026100009F47BCF8BE241FE80E247FC8DE2B701FB
:1026200090E071CFB70180E390E00E9432139A945A
:102630006CCF8FEF9FEF99CFFC01059061507040F8
:102640000110D8F7809590958E0F9F1F0895FC017B
:102650006150704001900110D8F7809590958E0FD1
:102660009F1F08950F931F93CF93DF93182F092F68
:10267000EB018B8181FD09C01FEF0FEF812F902FA0
:10268000DF91CF911F910F91089582FF14C02E8189
:102690003F818C819D81281739073CF4E881F981BD
:1026A000CF0101969983888310838E819F81019643
:1026B0009F838E83E3CFE885F985812F0995892B48
:1026C000A1F3DACFFA01AA27283051F1203181F1A4
:1026D000E8946F936E7F6E5F7F4F8F4F9F4FAF4F2A
:1026E000B1E03ED0B4E03CD0670F781F891F9A1F3D
:1026F000A11D680F791F8A1F911DA11D6A0F711DF1
:10270000811D911DA11D20D009F468943F912AE0FC
:10271000269F11243019305D3193DEF6CF010895E4
:10272000462F4770405D4193B3E00FD0C9F7F6CF15
:10273000462F4F70405D4A3318F0495D31FD4052DD
:10274000419302D0A9F7EACFB4E0A6959795879573
:1027500077956795BA95C9F7009761057105089552
:102760009B01AC010A2E06945795479537952795FE
:10277000BA95C9F7620F731F841F951FA01D089596
:04278000F894FFCFFB
:10278400000000005E01B500EB00AB011C01FA0083
:102794000E01000000003F0512057305EF04E2007E
:1027A400FF04F0040D0A003E206E61636B003E20BE
:1027B40072656164206661696C6564004D45534DC2
:1027C4004552495A454421004E6F2066696E67653B
:1027D4007220666F756E6421004F68206E6F212031
:1027E4005765206C6F7374207468652066696E6722
:1027F400657221006E657720626573742064697365
:1028040074616E63653A2025642C20746865746174
:0E2814003A2025642C207068693A2025640063
:00000001FF
