:020000040000FA
:100000000C9458000C9480000C9480000C94800098
:100010000C9480000C9480000C9480000C94800060
:100020000C9480000C9480000C9480000C94590572
:100030000C9480000C9480000C9480000C94800040
:100040000C94F4030C9480000C94C2030C949C0355
:100050000C9480000C9480000C9480000C94800020
:100060000C943E040C948000000000002500280041
:100070002B00040404040404040402020202020229
:10008000030303030303010204081020408001025C
:1000900004081020010204081020000000080002DB
:1000A0000100000304070000000000000000150626
:1000B00011241FBECFEFD8E0DEBFCDBF11E0A0E01E
:1000C000B1E0E8E8F1E102C005900D92A234B10779
:1000D000D9F722E0A2E4B1E001C01D92A63EB2072A
:1000E000E1F710E0C8E5D0E004C02197FE010E94CE
:1000F000BC08C735D107C9F70E94C3060C94C208D3
:100100000C940000E1ECF1E0A089B18982E08C93CD
:10011000A485B5851C92A685B78583E38C93108E44
:10012000A489B58986E08C93A289B3898C9180617A
:100130008C93A289B3898C9188608C93A289B389AE
:100140008C9180688C930288F389E02D80818F7D6B
:1001500080830895AF92BF92CF92DF92EF92FF9289
:100160000F931F93CF93DF936C017B018B01040FDF
:10017000151FEB015E01AE18BF08C017D10759F07B
:100180006991D601ED91FC910190F081E02DC601BD
:100190000995892B79F7C501DF91CF911F910F91B7
:1001A000FF90EF90DF90CF90BF90AF9008950895AB
:1001B000FC01538D448D252F30E0842F90E0821B6D
:1001C000930B541710F0CF96089501970895FC01F2
:1001D000918D828D981761F0A28DAE0FBF2FB11D4A
:1001E0005D968C91928D9F5F9F73928F90E00895A2
:1001F0008FEF9FEF0895FC01918D828D981731F05C
:10020000828DE80FF11D858D90E008958FEF9FEFAF
:100210000895FC01918D228D892F90E0805C9F4F85
:10022000821B91098F739927089581EC91E00E94B8
:10023000090121E0892B09F420E0822F089580E054
:1002400090E0892B29F00E94150181110C94000087
:100250000895FC01A48DA80FB92FB11DA35ABF4F5B
:100260002C91848D90E001968F739927848FA689B5
:10027000B7892C93A089B1898C91837080648C9309
:10028000938D848D981306C00288F389E02D8081B8
:100290008F7D80830895EF92FF920F931F93CF93EA
:1002A000DF93EC0181E0888F9B8D8C8D98131AC0B1
:1002B000E889F989808185FF15C09FB7F894EE8998
:1002C000FF896083E889F9898081837080648083F5
:1002D0009FBF81E090E0DF91CF911F910F91FF9040
:1002E000EF900895F62E0B8D10E00F5F1F4F0F73E8
:1002F0001127E02E8C8D8E110CC00FB607FCFACFA3
:10030000E889F989808185FFF5CFCE010E94290116
:10031000F1CFEB8DEC0FFD2FF11DE35AFF4FF08273
:100320009FB7F8940B8FEA89FB8980818062CFCFD9
:10033000CF93DF93EC01888D8823B9F0AA89BB891C
:10034000E889F9898C9185FD03C0808186FD0DC007
:100350000FB607FCF7CF8C9185FFF2CF808185FF28
:10036000EDCFCE010E942901E9CFDF91CF91089511
:1003700090E0FC01E656FF4F2491FC01EA57FF4F45
:100380003491FC01EE58FF4FE491EE23C9F0222393
:1003900039F0233001F1A8F4213019F1223029F18C
:1003A000F0E0EE0FFF1FE859FF4FA591B4918FB712
:1003B000F894EC91611126C030953E233C938FBF99
:1003C00008952730A9F02830C9F0243049F78091EA
:1003D00080008F7D03C0809180008F7780938000A4
:1003E000DFCF84B58F7784BDDBCF84B58F7DFBCF26
:1003F0008091B0008F778093B000D2CF8091B00011
:100400008F7DF9CF3E2BDACF3FB7F8948091B901B9
:100410009091BA01A091BB01B091BC0126B5A89BF7
:1004200005C02F3F19F00196A11DB11D3FBFBA2F86
:10043000A92F982F8827BC01CD01620F711D811D46
:10044000911D42E0660F771F881F991F4A95D1F7CB
:1004500008952FB7F8946091B5017091B60180911D
:10046000B7019091B8012FBF089520916A01260F1E
:100470003327331F21323105ECF420918E01FC012A
:1004800090E080E0243069F082E00895A0916A0154
:100490002191AC01465B5E4FA40FB52FB11D2C938B
:1004A0000196861798F380916A01680F60936A013C
:1004B00080E0089581E008958FEF9FEF08958FEF1A
:1004C0009FEF08958091430190E091958195910966
:1004D0000895CF93DF93CB01EA01642F0E94350288
:1004E000CE01DF91CF910895CF93DF931F92CDB7C7
:1004F000DEB7698361E0CE0101960E94350281E09A
:1005000090E00F90DF91CF91089590E080E0089502
:10051000FC0101900020E9F73197AF01481B590B0E
:10052000BC0181EC91E00C94AA008F929F92AF9253
:10053000BF920F931F93CF93DF93CDB7DEB7A197F1
:100540000FB6F894DEBF0FBECDBF19A2423008F43B
:100550004AE08E010F5D1F4F842E912CB12CA12CEF
:10056000A50194010E949A08E62FB901CA01EA3058
:10057000F4F4E05DD801EE938D01232B242B252B81
:1005800079F790E080E0109719F0CD010E94880281
:10059000A1960FB6F894DEBF0FBECDBFDF91CF910D
:1005A0001F910F91BF90AF909F908F900895E95C3D
:1005B000E1CFEF92FF920F931F93CF93DF9300D081
:1005C00000D0CDB7DEB781EC91E00E94E70081EC6E
:1005D00091E00E94E7008E010F5F1F4F78018A3380
:1005E00041F0F80181938F0181EC91E00E94E700D6
:1005F000F6CFC7010E947408182F81EC91E00E9489
:10060000E7008053990B8230910520F4682F812FE9
:100610000E94B80181EC91E00E94E7008A3011F05D
:100620008D30C1F781EC91E00E94FB008A3021F40B
:1006300081EC91E00E94E7000F900F900F900F90D7
:10064000DF91CF911F910F91FF90EF9008951F932D
:10065000CF93DF9385ED8093BC008091460190910C
:100660004701A0914801B09149010796A11DB11D14
:1006700023E0B695A795979587952A95D1F7209170
:10068000BC0024FD03C010928E0152C0409146016F
:10069000509147016091480170914901452B462BCB
:1006A000472B69F30097A105B10541F025E32A9591
:1006B000F1F700000197A109B109E1CF809145014F
:1006C000C1E0C0934401882399F1D091B800109102
:1006D000BA008091BC008A7B8093BC0060E082E11C
:1006E0000E94B80160E083E10E94B80110928E017F
:1006F000C093900110928F0161E082E10E94B801E5
:1007000061E083E10E94B8018091B9008E7F8093FF
:10071000B9008091B9008D7F8093B90088E48093FF
:10072000B80085E48093BC001093BA00D093B80061
:10073000DF91CF911F9108951F920F920FB60F92E4
:1007400011242F933F934F935F936F937F938F93D6
:100750009F93AF93BF93EF93FF9381EC91E00E943F
:100760002901FF91EF91BF91AF919F918F917F915F
:100770006F915F914F913F912F910F900FBE0F900E
:100780001F9018951F920F920FB60F9211242F935E
:100790008F939F93EF93FF93E091D101F091D2015A
:1007A0008081E091D701F091D80182FD1BC090813A
:1007B0008091DA018F5F8F732091DB01821741F006
:1007C000E091DA01F0E0EF53FE4F958F8093DA016C
:1007D000FF91EF919F918F912F910F900FBE0F90EE
:1007E0001F9018958081F4CF1F920F920FB60F9231
:1007F00011242F933F938F939F93AF93BF93809137
:10080000B5019091B601A091B701B091B8013091B6
:10081000B40123E0230F2D3758F50196A11DB11D1A
:100820002093B4018093B5019093B601A093B701D2
:10083000B093B8018091B9019091BA01A091BB0128
:10084000B091BC010196A11DB11D8093B901909397
:10085000BA01A093BB01B093BC01BF91AF919F912E
:100860008F913F912F910F900FBE0F901F90189571
:1008700026E8230F0296A11DB11DD2CF1F920F9221
:100880000FB60F9211242F933F934F935F936F9363
:100890007F938F939F93AF93BF93EF93FF93809139
:1008A000B900887F803609F44AC0F0F5883209F42F
:1008B000A5C018F5803109F499C0B8F4882309F46B
:1008C000F5C0883009F492C0FF91EF91BF91AF91CC
:1008D0009F918F917F916F915F914F913F912F9158
:1008E0000F900FBE0F901F901895883109F486C0A5
:1008F000803251F780938D0114C0803409F49BC07D
:1009000040F48033B9F38833F9F680938D0185EC98
:10091000AEC0803509F483C0883509F494C08834AA
:1009200099F60E942703D0CF883909F48AC038F598
:10093000883729F050F4883611F0803729F683E0A3
:1009400080938E0110928C0155C0883809F479C0CB
:10095000803919F0803809F0B7CF80918C0180324E
:1009600008F06FC0E0918C0181E08E0F80938C01C4
:100970008091BB00F0E0E459FE4F80833BC0803B98
:1009800039F0D0F4803A09F477C0883A09F09CCF66
:1009900084E080938E0110926B0110926A01F0E066
:1009A000E0E0099580916A0181110FC081E0809398
:1009B0006A0110924A0109C0803C09F4A8CF883C22
:1009C00009F4A5CF883B09F07FCFE0916B0181E06E
:1009D0008E0F80936B01F0E0E65BFE4F8081809389
:1009E000BB0090916B0180916A0129C08091B30195
:1009F0008093BB0085EC8093BC0066CF9091B201E0
:100A00008091B101981758F5E091B20181E08E0F05
:100A10008093B201F0E0EF56FE4F8081E9CFE09184
:100A2000B20181E08E0F8093B2018091BB00F0E0B3
:100A3000EF56FE4F80839091B2018091B1019817DB
:100A4000C8F285E8D8CFE091B20181E08E0F8093A3
:100A5000B2018091BB00F0E0EF56FE4F80838091A1
:100A6000900181115ECF81E080938F0184EA8093B1
:100A7000BC0010928E0128CF85EC8093BC001092B0
:100A80008E0180918C01803230F4E0918C01F0E095
:100A9000E459FE4F108260918C0170E08CE691E089
:100AA000F0E0E0E0099510928C010ECF10928D01DC
:100AB00038CF1F920F920FB60F9211242F933F93AE
:100AC0004F935F936F937F938F939F93AF93BF9356
:100AD000CF93DF93EF93FF9380914201C091C802BF
:100AE000D0E087FF24C0109285001092840080918E
:100AF00042018F5F8093420180914201082E000CD9
:100B0000990B8C179D0724F4809142018C30C4F11D
:100B10008091840090918500049680349C4908F46B
:100B20007AC08091840090918500049676C080916F
:100B30004201082E000C990B8C179D07C4F6E0911A
:100B400042018E2FEE0F990BFC01EE0FFF1FE80FF5
:100B5000F91FEC55FD4F808186FFC9CFE09142011E
:100B60008E2FEE0F990BFC01EE0FFF1FE80FF91F00
:100B7000EC55FD4F808160E08F730E94B801B7CFC4
:100B80002091840030918500E09142018E2FEE0F7C
:100B9000990BFC01EE0FFF1FE80FF91FEC55FD4FFD
:100BA00081819281820F931F9093890080938800A6
:100BB000E09142018E2FEE0F990BFC01EE0FFF1F0B
:100BC000E80FF91FEC55FD4F808186FF11C0E091C1
:100BD00042018E2FEE0F990BFC01EE0FFF1FE80F65
:100BE000F91FEC55FD4F808161E08F730E94B801C1
:100BF000FF91EF91DF91CF91BF91AF919F918F9135
:100C00007F916F915F914F913F912F910F900FBE08
:100C10000F901F90189580E49CE990938900809331
:100C200088008FEF80934201E3CF1092C4011092AD
:100C3000C30188EE93E0A0E0B0E08093C5019093FB
:100C4000C601A093C701B093C80184E091E09093DE
:100C5000C2018093C10185EC90E09093CE01809316
:100C6000CD0184EC90E09093D0018093CF0180EC93
:100C700090E09093D2018093D10181EC90E0909329
:100C8000D4018093D30182EC90E09093D6018093BD
:100C9000D50186EC90E09093D8018093D701109213
:100CA000DA011092DB011092DC011092DD0110924A
:100CB000640210926502109266021092670210920E
:100CC00068021092690210926A0210926B021092EE
:100CD0006C0210926D0210926E0210926F021092CE
:100CE000700210927102109272021092730280913F
:100CF000C8028C3008F03FC091E0980F9093C80272
:100D00008093CA0290E0FC01EE0FFF1FE80FF91F6D
:100D1000EC55FD4F88EB9BE0928381838091C80264
:100D20008C3068F591E0980F9093C8028093CD02C3
:100D300090E0FC01EE0FFF1FE80FF91FEC55FD4F8F
:100D400088EB9BE0928381838AE590E09093D102C7
:100D50008093D00283E290E09093D3028093D202FA
:100D60001092D5021092D4028FEF9FEF9093D7028A
:100D70008093D60208958FEF8093CA02CFCF8FEF72
:100D80008093CD02E1CF789484B5826084BD84B530
:100D9000816084BD85B5826085BD85B5816085BD76
:100DA00080916E00816080936E001092810080912E
:100DB00081008260809381008091810081608093B6
:100DC0008100809180008160809380008091B100DB
:100DD00084608093B1008091B00081608093B00006
:100DE00080917A00846080937A0080917A0082609A
:100DF00080937A0080917A00816080937A0080915C
:100E00007A00806880937A001092C1001092A0024C
:100E10001092A1021092A2021092A30210926002FC
:100E20001092610210926202109263020E942902E3
:100E30006B017C014B015C0128EB820E2BE0921EC2
:100E4000A11CB11C0E9429026C157D058E059F0511
:100E500028F086169706A806B906A0F70E94040295
:100E60004B015C0198EEC92E93E0D92EE12CF12CB8
:100E70000E940402681979098A099B09683E734037
:100E800081059105A8F331E0C31AD108E108F10802
:100E900048EE840E43E0941EA11CB11CC114D10481
:100EA000E104F10429F70E94820082E191E00E94AE
:100EB00088020E9429026B017C014B015C018AE0DF
:100EC000880E911CA11CB11C0E9429026C157D0585
:100ED0008E059F0528F086169706A806B906A0F786
:100EE00081E08093740283E291E00E9488020E9474
:100EF0008200C0E0D0E084EF882E99249394A12C46
:100F0000B12C0E942902672B682B692B09F4D0C0F1
:100F10000E942902C090BD01D090BE01E090BF01A7
:100F2000F090C0016C157D058E059F0508F4D3C0B7
:100F3000C090BD01D090BE01E090BF01F090C00113
:100F40009B01AC012C193D094E095F0969017A0129
:100F500038EEC31633E0D306E104F10408F4B0C060
:100F60006093BD017093BE018093BF019093C00157
:100F700080926C0290926D02A0926E02B0926F020B
:100F8000109270021092710210927202109273020B
:100F90008091640290916502A0916602B09167020F
:100FA0008093680290936902A0936A02B0936B02E7
:100FB0000E94290260936402709365028093660226
:100FC0009093670281EC91E00E94FB00843611F45B
:100FD0000E94D9020E9429026B017C018AE291E001
:100FE0000E9488024AE061E070E080E090E00E94A8
:100FF000950281E391E00E9488024AE0C701B601B0
:101000000E94950283E391E00E948802809164022D
:1010100090916502A0916602B0916702A7019601C6
:10102000281B390B4A0B5B0BCA01B9014AE00E942D
:10103000950283E391E00E948802609164027091BE
:1010400065028091660290916702C0906802D0901C
:101050006902E0906A02F0906B026C197D098E09BA
:101060009F094AE00E94950285E391E00E94880270
:101070000E9429024AE00E94950287E391E00E94C3
:1010800088028EE391E00E94880281EC91E00E9448
:10109000FB00843611F40E94D9020E942902609359
:1010A000640270936502809366029093670208C0A1
:1010B0000E942902623071058105910508F028CF50
:1010C000209709F41ECF0E941501882309F419CF37
:1010D0000E94000016CF6093BD017093BE01809303
:1010E000BF019093C00124CFFC0188279927E89481
:1010F00021912032E9F3293010F02E30C8F32B3241
:1011000041F02D3239F4689404C00E949208820F95
:10111000911D219120532A30C0F31EF490958195A2
:101120009F4F08957AE0979F902D879F802D910D76
:1011300011240895A1E21A2EAA1BBB1BFD010DC0AC
:10114000AA1FBB1FEE1FFF1FA217B307E407F50777
:1011500020F0A21BB30BE40BF50B661F771F881F53
:10116000991F1A9469F760957095809590959B01E9
:10117000AC01BD01CF010895EE0FFF1F0590F49162
:10118000E02D0994F894FFCF000000004B01AA0065
:10119000D80098010901E700FB00564D4450565F06
:1011A000317C315F564D4450560A00564D445052E2
:1011B0005F00564D4450455F003A323A007C005F74
:0A11C000564D445045000D0A000092
:107E0000112484B714BE81FFF0D085E080938100F7
:107E100082E08093C00088E18093C10086E0809377
:107E2000C20080E18093C4008EE0C9D0259A86E02C
:107E300020E33CEF91E0309385002093840096BBD3
:107E4000B09BFECF1D9AA8958150A9F7CC24DD24C4
:107E500088248394B5E0AB2EA1E19A2EF3E0BF2EE7
:107E6000A2D0813461F49FD0082FAFD0023811F036
:107E7000013811F484E001C083E08DD089C08234E0
:107E800011F484E103C0853419F485E0A6D080C0E4
:107E9000853579F488D0E82EFF2485D0082F10E0AE
:107EA000102F00270E291F29000F111F8ED06801E7
:107EB0006FC0863521F484E090D080E0DECF843638
:107EC00009F040C070D06FD0082F6DD080E0C81688
:107ED00080E7D80618F4F601B7BEE895C0E0D1E017
:107EE00062D089930C17E1F7F0E0CF16F0E7DF06D8
:107EF00018F0F601B7BEE89568D007B600FCFDCFD4
:107F0000A601A0E0B1E02C9130E011968C91119780
:107F100090E0982F8827822B932B1296FA010C0160
:107F200087BEE89511244E5F5F4FF1E0A038BF0790
:107F300051F7F601A7BEE89507B600FCFDCF97BE46
:107F4000E89526C08437B1F42ED02DD0F82E2BD052
:107F50003CD0F601EF2C8F010F5F1F4F84911BD097
:107F6000EA94F801C1F70894C11CD11CFA94CF0C13
:107F7000D11C0EC0853739F428D08EE10CD085E9AC
:107F80000AD08FE07ACF813511F488E018D01DD067
:107F900080E101D065CF982F8091C00085FFFCCF94
:107FA0009093C60008958091C00087FFFCCF809118
:107FB000C00084FD01C0A8958091C6000895E0E648
:107FC000F0E098E1908380830895EDDF803219F02E
:107FD00088E0F5DFFFCF84E1DECF1F93182FE3DFCA
:107FE0001150E9F7F2DF1F91089580E0E8DFEE27F6
:047FF000FF270994CA
:027FFE00040479
:00000001FF
